{
  "_format": "hh-sol-artifact-1",
  "contractName": "Ballot",
  "sourceName": "contracts/Ballot.sol",
  "abi": [
    {
      "inputs": [
        {
          "internalType": "bytes32[]",
          "name": "proposalNames",
          "type": "bytes32[]"
        }
      ],
      "stateMutability": "nonpayable",
      "type": "constructor"
    },
    {
      "inputs": [
        {
          "internalType": "uint256",
          "name": "",
          "type": "uint256"
        }
      ],
      "name": "alreadyVoted",
      "outputs": [
        {
          "internalType": "address",
          "name": "",
          "type": "address"
        }
      ],
      "stateMutability": "view",
      "type": "function"
    },
    {
      "inputs": [
        {
          "internalType": "address",
          "name": "voter",
          "type": "address"
        }
      ],
      "name": "checkExistingVoter",
      "outputs": [
        {
          "internalType": "bool",
          "name": "existingVoter",
          "type": "bool"
        }
      ],
      "stateMutability": "view",
      "type": "function"
    },
    {
      "inputs": [
        {
          "internalType": "uint256",
          "name": "proposal",
          "type": "uint256"
        }
      ],
      "name": "proposalSupporters",
      "outputs": [
        {
          "components": [
            {
              "internalType": "bytes32",
              "name": "name",
              "type": "bytes32"
            }
          ],
          "internalType": "struct Ballot.Proposal",
          "name": "",
          "type": "tuple"
        },
        {
          "internalType": "address[]",
          "name": "",
          "type": "address[]"
        }
      ],
      "stateMutability": "view",
      "type": "function"
    },
    {
      "inputs": [
        {
          "internalType": "uint256",
          "name": "",
          "type": "uint256"
        }
      ],
      "name": "proposals",
      "outputs": [
        {
          "internalType": "bytes32",
          "name": "name",
          "type": "bytes32"
        }
      ],
      "stateMutability": "view",
      "type": "function"
    },
    {
      "inputs": [
        {
          "internalType": "uint256",
          "name": "proposal",
          "type": "uint256"
        }
      ],
      "name": "vote",
      "outputs": [],
      "stateMutability": "payable",
      "type": "function"
    },
    {
      "inputs": [
        {
          "internalType": "address",
          "name": "",
          "type": "address"
        }
      ],
      "name": "votes",
      "outputs": [
        {
          "internalType": "uint256",
          "name": "",
          "type": "uint256"
        }
      ],
      "stateMutability": "view",
      "type": "function"
    }
  ],
  "bytecode": "0x60806040523480156200001157600080fd5b5060405162001082380380620010828339818101604052810190620000379190620002e7565b600060405180602001604052807f454d5054592050524f504f53414c0000000000000000000000000000000000008152509080600181540180825580915050600190039060005260206000200160009091909190915060008201518160000155505060005b81518110156200011b5760006040518060200160405280848481518110620000c957620000c862000338565b5b60200260200101518152509080600181540180825580915050600190039060005260206000200160009091909190915060008201518160000155505080806200011290620003a0565b9150506200009c565b5050620003ee565b6000604051905090565b600080fd5b600080fd5b600080fd5b6000601f19601f8301169050919050565b7f4e487b7100000000000000000000000000000000000000000000000000000000600052604160045260246000fd5b62000187826200013c565b810181811067ffffffffffffffff82111715620001a957620001a86200014d565b5b80604052505050565b6000620001be62000123565b9050620001cc82826200017c565b919050565b600067ffffffffffffffff821115620001ef57620001ee6200014d565b5b602082029050602081019050919050565b600080fd5b6000819050919050565b6200021a8162000205565b81146200022657600080fd5b50565b6000815190506200023a816200020f565b92915050565b6000620002576200025184620001d1565b620001b2565b905080838252602082019050602084028301858111156200027d576200027c62000200565b5b835b81811015620002aa578062000295888262000229565b8452602084019350506020810190506200027f565b5050509392505050565b600082601f830112620002cc57620002cb62000137565b5b8151620002de84826020860162000240565b91505092915050565b6000602082840312156200030057620002ff6200012d565b5b600082015167ffffffffffffffff81111562000321576200032062000132565b5b6200032f84828501620002b4565b91505092915050565b7f4e487b7100000000000000000000000000000000000000000000000000000000600052603260045260246000fd5b7f4e487b7100000000000000000000000000000000000000000000000000000000600052601160045260246000fd5b6000819050919050565b6000620003ad8262000396565b91507fffffffffffffffffffffffffffffffffffffffffffffffffffffffffffffffff821415620003e357620003e262000367565b5b600182019050919050565b610c8480620003fe6000396000f3fe6080604052600436106100555760003560e01c80630121b93f1461005a578063013cf08b14610076578063333b28be146100b3578063b1e7a1f0146100f0578063ccfd945c1461012d578063d8bff5a51461016b575b600080fd5b610074600480360381019061006f91906108b5565b6101a8565b005b34801561008257600080fd5b5061009d600480360381019061009891906108b5565b610556565b6040516100aa91906108fb565b60405180910390f35b3480156100bf57600080fd5b506100da60048036038101906100d59190610974565b610580565b6040516100e791906109bc565b60405180910390f35b3480156100fc57600080fd5b50610117600480360381019061011291906108b5565b610630565b60405161012491906109e6565b60405180910390f35b34801561013957600080fd5b50610154600480360381019061014f91906108b5565b61066f565b604051610162929190610aea565b60405180910390f35b34801561017757600080fd5b50610192600480360381019061018d9190610974565b610753565b60405161019f9190610b29565b60405180910390f35b600081141580156101ca575060016000805490506101c69190610b73565b8111155b6101d357600080fd5b60006101de33610580565b90506000600160003373ffffffffffffffffffffffffffffffffffffffff1673ffffffffffffffffffffffffffffffffffffffff1681526020019081526020016000205490508161028d576002339080600181540180825580915050600190039060005260206000200160009091909190916101000a81548173ffffffffffffffffffffffffffffffffffffffff021916908373ffffffffffffffffffffffffffffffffffffffff1602179055505b82600160003373ffffffffffffffffffffffffffffffffffffffff1673ffffffffffffffffffffffffffffffffffffffff1681526020019081526020016000208190555060036000848152602001908152602001600020339080600181540180825580915050600190039060005260206000200160009091909190916101000a81548173ffffffffffffffffffffffffffffffffffffffff021916908373ffffffffffffffffffffffffffffffffffffffff160217905550811561055157600067ffffffffffffffff81111561036657610365610ba7565b5b6040519080825280602002602001820160405280156103945781602001602082028036833780820191505090505b50600490805190602001906103aa92919061076b565b5060005b60036000838152602001908152602001600020805490508110156104cb5760006003600084815260200190815260200160002082815481106103f3576103f2610bd6565b5b9060005260206000200160009054906101000a900473ffffffffffffffffffffffffffffffffffffffff1690503373ffffffffffffffffffffffffffffffffffffffff168173ffffffffffffffffffffffffffffffffffffffff16146104b7576004819080600181540180825580915050600190039060005260206000200160009091909190916101000a81548173ffffffffffffffffffffffffffffffffffffffff021916908373ffffffffffffffffffffffffffffffffffffffff1602179055505b5080806104c390610c05565b9150506103ae565b506004600360008381526020019081526020016000209080546104ef9291906107f5565b50600067ffffffffffffffff81111561050b5761050a610ba7565b5b6040519080825280602002602001820160405280156105395781602001602082028036833780820191505090505b506004908051906020019061054f92919061076b565b505b505050565b6000818154811061056657600080fd5b906000526020600020016000915090508060000154905081565b600080600090505b60028054905081101561062a576000600282815481106105ab576105aa610bd6565b5b9060005260206000200160009054906101000a900473ffffffffffffffffffffffffffffffffffffffff1690508073ffffffffffffffffffffffffffffffffffffffff168473ffffffffffffffffffffffffffffffffffffffff16141561061657600192505061062a565b50808061062290610c05565b915050610588565b50919050565b6002818154811061064057600080fd5b906000526020600020016000915054906101000a900473ffffffffffffffffffffffffffffffffffffffff1681565b610677610847565b60606000838154811061068d5761068c610bd6565b5b90600052602060002001600360008581526020019081526020016000208160405180602001604052908160008201548152505091508080548060200260200160405190810160405280929190818152602001828054801561074357602002820191906000526020600020905b8160009054906101000a900473ffffffffffffffffffffffffffffffffffffffff1673ffffffffffffffffffffffffffffffffffffffff16815260200190600101908083116106f9575b5050505050905091509150915091565b60016020528060005260406000206000915090505481565b8280548282559060005260206000209081019282156107e4579160200282015b828111156107e35782518260006101000a81548173ffffffffffffffffffffffffffffffffffffffff021916908373ffffffffffffffffffffffffffffffffffffffff1602179055509160200191906001019061078b565b5b5090506107f1919061085d565b5090565b8280548282559060005260206000209081019282156108365760005260206000209182015b8281111561083557825482559160010191906001019061081a565b5b509050610843919061085d565b5090565b6040518060200160405280600080191681525090565b5b8082111561087657600081600090555060010161085e565b5090565b600080fd5b6000819050919050565b6108928161087f565b811461089d57600080fd5b50565b6000813590506108af81610889565b92915050565b6000602082840312156108cb576108ca61087a565b5b60006108d9848285016108a0565b91505092915050565b6000819050919050565b6108f5816108e2565b82525050565b600060208201905061091060008301846108ec565b92915050565b600073ffffffffffffffffffffffffffffffffffffffff82169050919050565b600061094182610916565b9050919050565b61095181610936565b811461095c57600080fd5b50565b60008135905061096e81610948565b92915050565b60006020828403121561098a5761098961087a565b5b60006109988482850161095f565b91505092915050565b60008115159050919050565b6109b6816109a1565b82525050565b60006020820190506109d160008301846109ad565b92915050565b6109e081610936565b82525050565b60006020820190506109fb60008301846109d7565b92915050565b610a0a816108e2565b82525050565b602082016000820151610a266000850182610a01565b50505050565b600081519050919050565b600082825260208201905092915050565b6000819050602082019050919050565b610a6181610936565b82525050565b6000610a738383610a58565b60208301905092915050565b6000602082019050919050565b6000610a9782610a2c565b610aa18185610a37565b9350610aac83610a48565b8060005b83811015610add578151610ac48882610a67565b9750610acf83610a7f565b925050600181019050610ab0565b5085935050505092915050565b6000604082019050610aff6000830185610a10565b8181036020830152610b118184610a8c565b90509392505050565b610b238161087f565b82525050565b6000602082019050610b3e6000830184610b1a565b92915050565b7f4e487b7100000000000000000000000000000000000000000000000000000000600052601160045260246000fd5b6000610b7e8261087f565b9150610b898361087f565b925082821015610b9c57610b9b610b44565b5b828203905092915050565b7f4e487b7100000000000000000000000000000000000000000000000000000000600052604160045260246000fd5b7f4e487b7100000000000000000000000000000000000000000000000000000000600052603260045260246000fd5b6000610c108261087f565b91507fffffffffffffffffffffffffffffffffffffffffffffffffffffffffffffffff821415610c4357610c42610b44565b5b60018201905091905056fea26469706673582212208cbc44f0af5b3469d355ecdd34907a062d41ed34a610531582d8c0f059b447a464736f6c63430008090033",
  "linkReferences": {},
  "deployedLinkReferences": {}
}