{
  "contractName": "Ballot",
  "abi": [
    {
      "inputs": [
        {
          "internalType": "string[]",
          "name": "proposalNames",
          "type": "string[]"
        }
      ],
      "stateMutability": "nonpayable",
      "type": "constructor"
    },
    {
      "inputs": [
        {
          "internalType": "uint256",
          "name": "",
          "type": "uint256"
        }
      ],
      "name": "alreadyVoted",
      "outputs": [
        {
          "internalType": "address",
          "name": "",
          "type": "address"
        }
      ],
      "stateMutability": "view",
      "type": "function",
      "constant": true
    },
    {
      "inputs": [
        {
          "internalType": "uint256",
          "name": "",
          "type": "uint256"
        }
      ],
      "name": "proposals",
      "outputs": [
        {
          "internalType": "string",
          "name": "name",
          "type": "string"
        }
      ],
      "stateMutability": "view",
      "type": "function",
      "constant": true
    },
    {
      "inputs": [
        {
          "internalType": "address",
          "name": "",
          "type": "address"
        }
      ],
      "name": "votes",
      "outputs": [
        {
          "internalType": "uint256",
          "name": "",
          "type": "uint256"
        }
      ],
      "stateMutability": "view",
      "type": "function",
      "constant": true
    },
    {
      "inputs": [
        {
          "internalType": "address",
          "name": "voter",
          "type": "address"
        }
      ],
      "name": "checkExistingVoter",
      "outputs": [
        {
          "internalType": "bool",
          "name": "existingVoter",
          "type": "bool"
        }
      ],
      "stateMutability": "view",
      "type": "function",
      "constant": true
    },
    {
      "inputs": [
        {
          "internalType": "uint256",
          "name": "proposal",
          "type": "uint256"
        }
      ],
      "name": "vote",
      "outputs": [],
      "stateMutability": "payable",
      "type": "function",
      "payable": true
    },
    {
      "inputs": [
        {
          "internalType": "uint256",
          "name": "proposal",
          "type": "uint256"
        }
      ],
      "name": "proposalSupporters",
      "outputs": [
        {
          "components": [
            {
              "internalType": "string",
              "name": "name",
              "type": "string"
            }
          ],
          "internalType": "struct Ballot.Proposal",
          "name": "",
          "type": "tuple"
        },
        {
          "internalType": "address[]",
          "name": "",
          "type": "address[]"
        }
      ],
      "stateMutability": "view",
      "type": "function",
      "constant": true
    }
  ],
  "bytecode": "0x60806040523480156200001157600080fd5b50604051620014eb380380620014eb8339818101604052810190620000379190620004ab565b600060405180602001604052806040518060400160405280600e81526020017f454d5054592050524f504f53414c000000000000000000000000000000000000815250815250908060018154018082558091505060019003906000526020600020016000909190919091506000820151816000019080519060200190620000c092919062000162565b50505060005b81518110156200015a5760006040518060200160405280848481518110620000f357620000f2620004fc565b5b60200260200101518152509080600181540180825580915050600190039060005260206000200160009091909190915060008201518160000190805190602001906200014192919062000162565b5050508080620001519062000564565b915050620000c6565b505062000615565b8280546200017090620005e0565b90600052602060002090601f016020900481019282620001945760008555620001e0565b82601f10620001af57805160ff1916838001178555620001e0565b82800160010185558215620001e0579182015b82811115620001df578251825591602001919060010190620001c2565b5b509050620001ef9190620001f3565b5090565b5b808211156200020e576000816000905550600101620001f4565b5090565b6000604051905090565b600080fd5b600080fd5b600080fd5b6000601f19601f8301169050919050565b7f4e487b7100000000000000000000000000000000000000000000000000000000600052604160045260246000fd5b62000276826200022b565b810181811067ffffffffffffffff821117156200029857620002976200023c565b5b80604052505050565b6000620002ad62000212565b9050620002bb82826200026b565b919050565b600067ffffffffffffffff821115620002de57620002dd6200023c565b5b602082029050602081019050919050565b600080fd5b600080fd5b600067ffffffffffffffff8211156200031757620003166200023c565b5b62000322826200022b565b9050602081019050919050565b60005b838110156200034f57808201518184015260208101905062000332565b838111156200035f576000848401525b50505050565b60006200037c6200037684620002f9565b620002a1565b9050828152602081018484840111156200039b576200039a620002f4565b5b620003a88482856200032f565b509392505050565b600082601f830112620003c857620003c762000226565b5b8151620003da84826020860162000365565b91505092915050565b6000620003fa620003f484620002c0565b620002a1565b9050808382526020820190506020840283018581111562000420576200041f620002ef565b5b835b818110156200046e57805167ffffffffffffffff81111562000449576200044862000226565b5b808601620004588982620003b0565b8552602085019450505060208101905062000422565b5050509392505050565b600082601f83011262000490576200048f62000226565b5b8151620004a2848260208601620003e3565b91505092915050565b600060208284031215620004c457620004c36200021c565b5b600082015167ffffffffffffffff811115620004e557620004e462000221565b5b620004f38482850162000478565b91505092915050565b7f4e487b7100000000000000000000000000000000000000000000000000000000600052603260045260246000fd5b7f4e487b7100000000000000000000000000000000000000000000000000000000600052601160045260246000fd5b6000819050919050565b600062000571826200055a565b91507fffffffffffffffffffffffffffffffffffffffffffffffffffffffffffffffff8203620005a657620005a56200052b565b5b600182019050919050565b7f4e487b7100000000000000000000000000000000000000000000000000000000600052602260045260246000fd5b60006002820490506001821680620005f957607f821691505b6020821081036200060f576200060e620005b1565b5b50919050565b610ec680620006256000396000f3fe6080604052600436106100555760003560e01c80630121b93f1461005a578063013cf08b14610076578063333b28be146100b3578063b1e7a1f0146100f0578063ccfd945c1461012d578063d8bff5a51461016b575b600080fd5b610074600480360381019061006f91906109c1565b6101a8565b005b34801561008257600080fd5b5061009d600480360381019061009891906109c1565b610556565b6040516100aa9190610a87565b60405180910390f35b3480156100bf57600080fd5b506100da60048036038101906100d59190610b07565b610608565b6040516100e79190610b4f565b60405180910390f35b3480156100fc57600080fd5b50610117600480360381019061011291906109c1565b6106b7565b6040516101249190610b79565b60405180910390f35b34801561013957600080fd5b50610154600480360381019061014f91906109c1565b6106f6565b604051610162929190610cc6565b60405180910390f35b34801561017757600080fd5b50610192600480360381019061018d9190610b07565b610862565b60405161019f9190610d0c565b60405180910390f35b600081141580156101ca575060016000805490506101c69190610d56565b8111155b6101d357600080fd5b60006101de33610608565b90506000600160003373ffffffffffffffffffffffffffffffffffffffff1673ffffffffffffffffffffffffffffffffffffffff1681526020019081526020016000205490508161028d576002339080600181540180825580915050600190039060005260206000200160009091909190916101000a81548173ffffffffffffffffffffffffffffffffffffffff021916908373ffffffffffffffffffffffffffffffffffffffff1602179055505b82600160003373ffffffffffffffffffffffffffffffffffffffff1673ffffffffffffffffffffffffffffffffffffffff1681526020019081526020016000208190555060036000848152602001908152602001600020339080600181540180825580915050600190039060005260206000200160009091909190916101000a81548173ffffffffffffffffffffffffffffffffffffffff021916908373ffffffffffffffffffffffffffffffffffffffff160217905550811561055157600067ffffffffffffffff81111561036657610365610d8a565b5b6040519080825280602002602001820160405280156103945781602001602082028036833780820191505090505b50600490805190602001906103aa92919061087a565b5060005b60036000838152602001908152602001600020805490508110156104cb5760006003600084815260200190815260200160002082815481106103f3576103f2610db9565b5b9060005260206000200160009054906101000a900473ffffffffffffffffffffffffffffffffffffffff1690503373ffffffffffffffffffffffffffffffffffffffff168173ffffffffffffffffffffffffffffffffffffffff16146104b7576004819080600181540180825580915050600190039060005260206000200160009091909190916101000a81548173ffffffffffffffffffffffffffffffffffffffff021916908373ffffffffffffffffffffffffffffffffffffffff1602179055505b5080806104c390610de8565b9150506103ae565b506004600360008381526020019081526020016000209080546104ef929190610904565b50600067ffffffffffffffff81111561050b5761050a610d8a565b5b6040519080825280602002602001820160405280156105395781602001602082028036833780820191505090505b506004908051906020019061054f92919061087a565b505b505050565b6000818154811061056657600080fd5b9060005260206000200160009150905080600001805461058590610e5f565b80601f01602080910402602001604051908101604052809291908181526020018280546105b190610e5f565b80156105fe5780601f106105d3576101008083540402835291602001916105fe565b820191906000526020600020905b8154815290600101906020018083116105e157829003601f168201915b5050505050905081565b600080600090505b6002805490508110156106b15760006002828154811061063357610632610db9565b5b9060005260206000200160009054906101000a900473ffffffffffffffffffffffffffffffffffffffff1690508073ffffffffffffffffffffffffffffffffffffffff168473ffffffffffffffffffffffffffffffffffffffff160361069d5760019250506106b1565b5080806106a990610de8565b915050610610565b50919050565b600281815481106106c757600080fd5b906000526020600020016000915054906101000a900473ffffffffffffffffffffffffffffffffffffffff1681565b6106fe610956565b60606000838154811061071457610713610db9565b5b90600052602060002001600360008581526020019081526020016000208160405180602001604052908160008201805461074d90610e5f565b80601f016020809104026020016040519081016040528092919081815260200182805461077990610e5f565b80156107c65780601f1061079b576101008083540402835291602001916107c6565b820191906000526020600020905b8154815290600101906020018083116107a957829003601f168201915b50505050508152505091508080548060200260200160405190810160405280929190818152602001828054801561085257602002820191906000526020600020905b8160009054906101000a900473ffffffffffffffffffffffffffffffffffffffff1673ffffffffffffffffffffffffffffffffffffffff1681526020019060010190808311610808575b5050505050905091509150915091565b60016020528060005260406000206000915090505481565b8280548282559060005260206000209081019282156108f3579160200282015b828111156108f25782518260006101000a81548173ffffffffffffffffffffffffffffffffffffffff021916908373ffffffffffffffffffffffffffffffffffffffff1602179055509160200191906001019061089a565b5b5090506109009190610969565b5090565b8280548282559060005260206000209081019282156109455760005260206000209182015b82811115610944578254825591600101919060010190610929565b5b5090506109529190610969565b5090565b6040518060200160405280606081525090565b5b8082111561098257600081600090555060010161096a565b5090565b600080fd5b6000819050919050565b61099e8161098b565b81146109a957600080fd5b50565b6000813590506109bb81610995565b92915050565b6000602082840312156109d7576109d6610986565b5b60006109e5848285016109ac565b91505092915050565b600081519050919050565b600082825260208201905092915050565b60005b83811015610a28578082015181840152602081019050610a0d565b83811115610a37576000848401525b50505050565b6000601f19601f8301169050919050565b6000610a59826109ee565b610a6381856109f9565b9350610a73818560208601610a0a565b610a7c81610a3d565b840191505092915050565b60006020820190508181036000830152610aa18184610a4e565b905092915050565b600073ffffffffffffffffffffffffffffffffffffffff82169050919050565b6000610ad482610aa9565b9050919050565b610ae481610ac9565b8114610aef57600080fd5b50565b600081359050610b0181610adb565b92915050565b600060208284031215610b1d57610b1c610986565b5b6000610b2b84828501610af2565b91505092915050565b60008115159050919050565b610b4981610b34565b82525050565b6000602082019050610b646000830184610b40565b92915050565b610b7381610ac9565b82525050565b6000602082019050610b8e6000830184610b6a565b92915050565b600082825260208201905092915050565b6000610bb0826109ee565b610bba8185610b94565b9350610bca818560208601610a0a565b610bd381610a3d565b840191505092915050565b60006020830160008301518482036000860152610bfb8282610ba5565b9150508091505092915050565b600081519050919050565b600082825260208201905092915050565b6000819050602082019050919050565b610c3d81610ac9565b82525050565b6000610c4f8383610c34565b60208301905092915050565b6000602082019050919050565b6000610c7382610c08565b610c7d8185610c13565b9350610c8883610c24565b8060005b83811015610cb9578151610ca08882610c43565b9750610cab83610c5b565b925050600181019050610c8c565b5085935050505092915050565b60006040820190508181036000830152610ce08185610bde565b90508181036020830152610cf48184610c68565b90509392505050565b610d068161098b565b82525050565b6000602082019050610d216000830184610cfd565b92915050565b7f4e487b7100000000000000000000000000000000000000000000000000000000600052601160045260246000fd5b6000610d618261098b565b9150610d6c8361098b565b925082821015610d7f57610d7e610d27565b5b828203905092915050565b7f4e487b7100000000000000000000000000000000000000000000000000000000600052604160045260246000fd5b7f4e487b7100000000000000000000000000000000000000000000000000000000600052603260045260246000fd5b6000610df38261098b565b91507fffffffffffffffffffffffffffffffffffffffffffffffffffffffffffffffff8203610e2557610e24610d27565b5b600182019050919050565b7f4e487b7100000000000000000000000000000000000000000000000000000000600052602260045260246000fd5b60006002820490506001821680610e7757607f821691505b602082108103610e8a57610e89610e30565b5b5091905056fea26469706673582212203905f983e1c80a8c8c3146497bf7734a80aabb92b65d1b037cc6e627abfe3c5d64736f6c634300080d0033",
  "immutableReferences": {},
  "source": "// SPDX-License-Identifier: GPL-3.0\npragma solidity >=0.7.0 <0.9.0;\n\ncontract Ballot {\n  struct Vote {\n        address voter;\n        uint vote;   // index of the voted proposal\n    }\n\n    // This is a type for a single proposal.\n    struct Proposal {\n        string name;   // short name (up to 32 bytes)\n    }\n\n    // A dynamically-sized array of `Proposal` structs.\n    Proposal[] public proposals;\n\n    mapping(address => uint) public votes;\n    //This will be used to iterate over votes to determine a winner\n    address[] public alreadyVoted;\n\n    // will be used to calculate current RAW state of voting\n    mapping(uint => address[]) votersPerOption;\n\n    address[] remainingVotersTemp;\n    /// Create a new ballot to choose one of `proposalNames`.\n    constructor(string[] memory proposalNames) {\n      // For each of the provided proposal names,\n      // create a new proposal object and add it\n      // to the end of the array.\n      proposals.push(Proposal({\n            name: 'EMPTY PROPOSAL'\n      }));\n      for (uint i = 0; i < proposalNames.length; i++) {\n          proposals.push(Proposal({\n            name: proposalNames[i]\n          }));\n      }\n    }\n\n    function checkExistingVoter(address voter) public view returns (bool existingVoter) {\n      // if mapping is truly initialized with all 0\n      // existingVoter = votes[voter] == 0;\n\n      // Checking if person already voted in a more surefire way\n      for (uint i = 0; i < alreadyVoted.length; i++) {\n        address earlierVoter = alreadyVoted[i];\n        if (voter == earlierVoter) {\n          existingVoter = true;\n          break;\n        }\n      }\n      \n    }\n\n    /// Give your vote (including votes delegated to you)\n    /// to proposal `proposals[proposal].name`.\n    function vote(uint proposal) external payable {\n      // If `proposal` is out of the range of the array,\n      // this will throw automatically and revert all\n      // changes.\n      require(proposal !=0 && proposal <= proposals.length - 1);\n\n      bool existingVoter = checkExistingVoter(msg.sender);\n      uint previousVote = votes[msg.sender];\n      // if person already voted \n      if (!existingVoter) {\n        alreadyVoted.push(msg.sender);\n      }\n\n      // mapping initialised with 0 AFAIK\n      votes[msg.sender] = proposal;\n\n      // add address to the list of voters for option voting state\n      votersPerOption[proposal].push(msg.sender);\n\n      // remove address from previously voted list if voter alrady voted before\n      if (existingVoter) {\n        remainingVotersTemp = new address[](0);\n        for (uint256 i = 0; i < votersPerOption[previousVote].length; i++) {\n          address currentVoter = votersPerOption[previousVote][i];\n          if (currentVoter != msg.sender) {\n            remainingVotersTemp.push(currentVoter);\n          }\n        }\n        votersPerOption[previousVote] = remainingVotersTemp;\n        remainingVotersTemp = new address[](0);\n      }\n    }\n\n    /// @dev Computes the winning proposal taking all\n    /// previous votes into account.\n    function proposalSupporters(uint proposal) public view\n            returns (Proposal memory, address[] memory)\n    {\n      return (proposals[proposal], votersPerOption[proposal]);\n    }\n\n    // Calls winningProposal() function to get the index\n    // of the winner contained in the proposals array and then\n    // returns the name of the winner\n    // function winnerName() external view\n    //         returns (bytes32 winnerName_)\n    // {\n    //     winnerName_ = proposals[winningProposal()].name;\n    // }\n}",
  "sourcePath": "/Users/user/projects/chainlink-hackathon-project/contracts/Ballot.sol",
  "compiler": {
    "name": "solc",
    "version": "0.8.13+commit.abaa5c0e.Emscripten.clang"
  },
  "schemaVersion": "3.4.7",
  "updatedAt": "2022-05-08T20:21:30.932Z",
  "networkType": "ethereum",
  "devdoc": {
    "kind": "dev",
    "methods": {
      "proposalSupporters(uint256)": {
        "details": "Computes the winning proposal taking all previous votes into account."
      }
    },
    "version": 1
  },
  "userdoc": {
    "kind": "user",
    "methods": {
      "constructor": {
        "notice": "Create a new ballot to choose one of `proposalNames`."
      },
      "vote(uint256)": {
        "notice": "Give your vote (including votes delegated to you) to proposal `proposals[proposal].name`."
      }
    },
    "version": 1
  }
}