{
  "contractName": "Ballot",
  "abi": [
    {
      "inputs": [
        {
          "internalType": "string[]",
          "name": "proposalNames",
          "type": "string[]"
        }
      ],
      "stateMutability": "nonpayable",
      "type": "constructor"
    },
    {
      "anonymous": false,
      "inputs": [
        {
          "indexed": true,
          "internalType": "address",
          "name": "from",
          "type": "address"
        },
        {
          "indexed": false,
          "internalType": "string",
          "name": "proposal",
          "type": "string"
        }
      ],
      "name": "VoteLog",
      "type": "event"
    },
    {
      "inputs": [
        {
          "internalType": "uint256",
          "name": "",
          "type": "uint256"
        }
      ],
      "name": "alreadyVoted",
      "outputs": [
        {
          "internalType": "address",
          "name": "",
          "type": "address"
        }
      ],
      "stateMutability": "view",
      "type": "function"
    },
    {
      "inputs": [
        {
          "internalType": "address",
          "name": "",
          "type": "address"
        }
      ],
      "name": "votes",
      "outputs": [
        {
          "internalType": "uint256",
          "name": "",
          "type": "uint256"
        }
      ],
      "stateMutability": "view",
      "type": "function"
    },
    {
      "inputs": [
        {
          "internalType": "address",
          "name": "voter",
          "type": "address"
        }
      ],
      "name": "checkExistingVoter",
      "outputs": [
        {
          "internalType": "bool",
          "name": "existingVoter",
          "type": "bool"
        }
      ],
      "stateMutability": "view",
      "type": "function"
    },
    {
      "inputs": [
        {
          "internalType": "uint256",
          "name": "proposal",
          "type": "uint256"
        }
      ],
      "name": "vote",
      "outputs": [],
      "stateMutability": "payable",
      "type": "function"
    },
    {
      "inputs": [
        {
          "internalType": "uint256",
          "name": "proposal",
          "type": "uint256"
        }
      ],
      "name": "proposalSupporters",
      "outputs": [
        {
          "components": [
            {
              "internalType": "string",
              "name": "name",
              "type": "string"
            }
          ],
          "internalType": "struct Ballot.Proposal",
          "name": "",
          "type": "tuple"
        },
        {
          "internalType": "address[]",
          "name": "",
          "type": "address[]"
        }
      ],
      "stateMutability": "view",
      "type": "function"
    },
    {
      "inputs": [],
      "name": "getProposals",
      "outputs": [
        {
          "components": [
            {
              "internalType": "string",
              "name": "name",
              "type": "string"
            }
          ],
          "internalType": "struct Ballot.Proposal[]",
          "name": "",
          "type": "tuple[]"
        }
      ],
      "stateMutability": "view",
      "type": "function"
    },
    {
      "inputs": [],
      "name": "getVote",
      "outputs": [
        {
          "internalType": "uint256",
          "name": "result",
          "type": "uint256"
        }
      ],
      "stateMutability": "view",
      "type": "function"
    }
  ],
  "bytecode": "0x60806040523480156200001157600080fd5b506040516200176c3803806200176c8339818101604052810190620000379190620004ab565b600060405180602001604052806040518060400160405280600e81526020017f454d5054592050524f504f53414c000000000000000000000000000000000000815250815250908060018154018082558091505060019003906000526020600020016000909190919091506000820151816000019080519060200190620000c092919062000162565b50505060005b81518110156200015a5760006040518060200160405280848481518110620000f357620000f2620004fc565b5b60200260200101518152509080600181540180825580915050600190039060005260206000200160009091909190915060008201518160000190805190602001906200014192919062000162565b5050508080620001519062000564565b915050620000c6565b505062000615565b8280546200017090620005e0565b90600052602060002090601f016020900481019282620001945760008555620001e0565b82601f10620001af57805160ff1916838001178555620001e0565b82800160010185558215620001e0579182015b82811115620001df578251825591602001919060010190620001c2565b5b509050620001ef9190620001f3565b5090565b5b808211156200020e576000816000905550600101620001f4565b5090565b6000604051905090565b600080fd5b600080fd5b600080fd5b6000601f19601f8301169050919050565b7f4e487b7100000000000000000000000000000000000000000000000000000000600052604160045260246000fd5b62000276826200022b565b810181811067ffffffffffffffff821117156200029857620002976200023c565b5b80604052505050565b6000620002ad62000212565b9050620002bb82826200026b565b919050565b600067ffffffffffffffff821115620002de57620002dd6200023c565b5b602082029050602081019050919050565b600080fd5b600080fd5b600067ffffffffffffffff8211156200031757620003166200023c565b5b62000322826200022b565b9050602081019050919050565b60005b838110156200034f57808201518184015260208101905062000332565b838111156200035f576000848401525b50505050565b60006200037c6200037684620002f9565b620002a1565b9050828152602081018484840111156200039b576200039a620002f4565b5b620003a88482856200032f565b509392505050565b600082601f830112620003c857620003c762000226565b5b8151620003da84826020860162000365565b91505092915050565b6000620003fa620003f484620002c0565b620002a1565b9050808382526020820190506020840283018581111562000420576200041f620002ef565b5b835b818110156200046e57805167ffffffffffffffff81111562000449576200044862000226565b5b808601620004588982620003b0565b8552602085019450505060208101905062000422565b5050509392505050565b600082601f83011262000490576200048f62000226565b5b8151620004a2848260208601620003e3565b91505092915050565b600060208284031215620004c457620004c36200021c565b5b600082015167ffffffffffffffff811115620004e557620004e462000221565b5b620004f38482850162000478565b91505092915050565b7f4e487b7100000000000000000000000000000000000000000000000000000000600052603260045260246000fd5b7f4e487b7100000000000000000000000000000000000000000000000000000000600052601160045260246000fd5b6000819050919050565b600062000571826200055a565b91507fffffffffffffffffffffffffffffffffffffffffffffffffffffffffffffffff8203620005a657620005a56200052b565b5b600182019050919050565b7f4e487b7100000000000000000000000000000000000000000000000000000000600052602260045260246000fd5b60006002820490506001821680620005f957607f821691505b6020821081036200060f576200060e620005b1565b5b50919050565b61114780620006256000396000f3fe6080604052600436106100705760003560e01c806362564c481161004e57806362564c48146100f9578063b1e7a1f014610124578063ccfd945c14610161578063d8bff5a51461019f57610070565b80630121b93f146100755780630242f35114610091578063333b28be146100bc575b600080fd5b61008f600480360381019061008a9190610ad8565b6101dc565b005b34801561009d57600080fd5b506100a66105eb565b6040516100b39190610b14565b60405180910390f35b3480156100c857600080fd5b506100e360048036038101906100de9190610b8d565b610632565b6040516100f09190610bd5565b60405180910390f35b34801561010557600080fd5b5061010e6106e1565b60405161011b9190610d75565b60405180910390f35b34801561013057600080fd5b5061014b60048036038101906101469190610ad8565b6107ce565b6040516101589190610da6565b60405180910390f35b34801561016d57600080fd5b5061018860048036038101906101839190610ad8565b61080d565b604051610196929190610ea9565b60405180910390f35b3480156101ab57600080fd5b506101c660048036038101906101c19190610b8d565b610979565b6040516101d39190610b14565b60405180910390f35b60016000805490506101ee9190610f0f565b8111156101fa57600080fd5b3373ffffffffffffffffffffffffffffffffffffffff167fa7d8a52d379fe42a0c9a27542d0670acc61e170cf5ad80cc7df6b1665c2f10786000838154811061024657610245610f43565b5b906000526020600020016000016040516102609190611078565b60405180910390a2600061027333610632565b90506000600160003373ffffffffffffffffffffffffffffffffffffffff1673ffffffffffffffffffffffffffffffffffffffff16815260200190815260200160002054905081610322576002339080600181540180825580915050600190039060005260206000200160009091909190916101000a81548173ffffffffffffffffffffffffffffffffffffffff021916908373ffffffffffffffffffffffffffffffffffffffff1602179055505b82600160003373ffffffffffffffffffffffffffffffffffffffff1673ffffffffffffffffffffffffffffffffffffffff1681526020019081526020016000208190555060036000848152602001908152602001600020339080600181540180825580915050600190039060005260206000200160009091909190916101000a81548173ffffffffffffffffffffffffffffffffffffffff021916908373ffffffffffffffffffffffffffffffffffffffff16021790555081156105e657600067ffffffffffffffff8111156103fb576103fa61109a565b5b6040519080825280602002602001820160405280156104295781602001602082028036833780820191505090505b506004908051906020019061043f929190610991565b5060005b600360008381526020019081526020016000208054905081101561056057600060036000848152602001908152602001600020828154811061048857610487610f43565b5b9060005260206000200160009054906101000a900473ffffffffffffffffffffffffffffffffffffffff1690503373ffffffffffffffffffffffffffffffffffffffff168173ffffffffffffffffffffffffffffffffffffffff161461054c576004819080600181540180825580915050600190039060005260206000200160009091909190916101000a81548173ffffffffffffffffffffffffffffffffffffffff021916908373ffffffffffffffffffffffffffffffffffffffff1602179055505b508080610558906110c9565b915050610443565b50600460036000838152602001908152602001600020908054610584929190610a1b565b50600067ffffffffffffffff8111156105a05761059f61109a565b5b6040519080825280602002602001820160405280156105ce5781602001602082028036833780820191505090505b50600490805190602001906105e4929190610991565b505b505050565b6000600160003373ffffffffffffffffffffffffffffffffffffffff1673ffffffffffffffffffffffffffffffffffffffff16815260200190815260200160002054905090565b600080600090505b6002805490508110156106db5760006002828154811061065d5761065c610f43565b5b9060005260206000200160009054906101000a900473ffffffffffffffffffffffffffffffffffffffff1690508073ffffffffffffffffffffffffffffffffffffffff168473ffffffffffffffffffffffffffffffffffffffff16036106c75760019250506106db565b5080806106d3906110c9565b91505061063a565b50919050565b60606000805480602002602001604051908101604052809291908181526020016000905b828210156107c55783829060005260206000200160405180602001604052908160008201805461073490610fa1565b80601f016020809104026020016040519081016040528092919081815260200182805461076090610fa1565b80156107ad5780601f10610782576101008083540402835291602001916107ad565b820191906000526020600020905b81548152906001019060200180831161079057829003601f168201915b50505050508152505081526020019060010190610705565b50505050905090565b600281815481106107de57600080fd5b906000526020600020016000915054906101000a900473ffffffffffffffffffffffffffffffffffffffff1681565b610815610a6d565b60606000838154811061082b5761082a610f43565b5b90600052602060002001600360008581526020019081526020016000208160405180602001604052908160008201805461086490610fa1565b80601f016020809104026020016040519081016040528092919081815260200182805461089090610fa1565b80156108dd5780601f106108b2576101008083540402835291602001916108dd565b820191906000526020600020905b8154815290600101906020018083116108c057829003601f168201915b50505050508152505091508080548060200260200160405190810160405280929190818152602001828054801561096957602002820191906000526020600020905b8160009054906101000a900473ffffffffffffffffffffffffffffffffffffffff1673ffffffffffffffffffffffffffffffffffffffff168152602001906001019080831161091f575b5050505050905091509150915091565b60016020528060005260406000206000915090505481565b828054828255906000526020600020908101928215610a0a579160200282015b82811115610a095782518260006101000a81548173ffffffffffffffffffffffffffffffffffffffff021916908373ffffffffffffffffffffffffffffffffffffffff160217905550916020019190600101906109b1565b5b509050610a179190610a80565b5090565b828054828255906000526020600020908101928215610a5c5760005260206000209182015b82811115610a5b578254825591600101919060010190610a40565b5b509050610a699190610a80565b5090565b6040518060200160405280606081525090565b5b80821115610a99576000816000905550600101610a81565b5090565b600080fd5b6000819050919050565b610ab581610aa2565b8114610ac057600080fd5b50565b600081359050610ad281610aac565b92915050565b600060208284031215610aee57610aed610a9d565b5b6000610afc84828501610ac3565b91505092915050565b610b0e81610aa2565b82525050565b6000602082019050610b296000830184610b05565b92915050565b600073ffffffffffffffffffffffffffffffffffffffff82169050919050565b6000610b5a82610b2f565b9050919050565b610b6a81610b4f565b8114610b7557600080fd5b50565b600081359050610b8781610b61565b92915050565b600060208284031215610ba357610ba2610a9d565b5b6000610bb184828501610b78565b91505092915050565b60008115159050919050565b610bcf81610bba565b82525050565b6000602082019050610bea6000830184610bc6565b92915050565b600081519050919050565b600082825260208201905092915050565b6000819050602082019050919050565b600081519050919050565b600082825260208201905092915050565b60005b83811015610c56578082015181840152602081019050610c3b565b83811115610c65576000848401525b50505050565b6000601f19601f8301169050919050565b6000610c8782610c1c565b610c918185610c27565b9350610ca1818560208601610c38565b610caa81610c6b565b840191505092915050565b60006020830160008301518482036000860152610cd28282610c7c565b9150508091505092915050565b6000610ceb8383610cb5565b905092915050565b6000602082019050919050565b6000610d0b82610bf0565b610d158185610bfb565b935083602082028501610d2785610c0c565b8060005b85811015610d635784840389528151610d448582610cdf565b9450610d4f83610cf3565b925060208a01995050600181019050610d2b565b50829750879550505050505092915050565b60006020820190508181036000830152610d8f8184610d00565b905092915050565b610da081610b4f565b82525050565b6000602082019050610dbb6000830184610d97565b92915050565b60006020830160008301518482036000860152610dde8282610c7c565b9150508091505092915050565b600081519050919050565b600082825260208201905092915050565b6000819050602082019050919050565b610e2081610b4f565b82525050565b6000610e328383610e17565b60208301905092915050565b6000602082019050919050565b6000610e5682610deb565b610e608185610df6565b9350610e6b83610e07565b8060005b83811015610e9c578151610e838882610e26565b9750610e8e83610e3e565b925050600181019050610e6f565b5085935050505092915050565b60006040820190508181036000830152610ec38185610dc1565b90508181036020830152610ed78184610e4b565b90509392505050565b7f4e487b7100000000000000000000000000000000000000000000000000000000600052601160045260246000fd5b6000610f1a82610aa2565b9150610f2583610aa2565b925082821015610f3857610f37610ee0565b5b828203905092915050565b7f4e487b7100000000000000000000000000000000000000000000000000000000600052603260045260246000fd5b7f4e487b7100000000000000000000000000000000000000000000000000000000600052602260045260246000fd5b60006002820490506001821680610fb957607f821691505b602082108103610fcc57610fcb610f72565b5b50919050565b600082825260208201905092915050565b60008190508160005260206000209050919050565b6000815461100581610fa1565b61100f8186610fd2565b9450600182166000811461102a576001811461103c5761106f565b60ff198316865260208601935061106f565b61104585610fe3565b60005b8381101561106757815481890152600182019150602081019050611048565b808801955050505b50505092915050565b600060208201905081810360008301526110928184610ff8565b905092915050565b7f4e487b7100000000000000000000000000000000000000000000000000000000600052604160045260246000fd5b60006110d482610aa2565b91507fffffffffffffffffffffffffffffffffffffffffffffffffffffffffffffffff820361110657611105610ee0565b5b60018201905091905056fea26469706673582212208f123acb037ad44b345119d49a1e326ca9270ef4b8a2aab6d43b4a799235860564736f6c634300080d0033",
  "immutableReferences": {},
  "source": "// SPDX-License-Identifier: GPL-3.0\npragma solidity >=0.7.0 <0.9.0;\n\ncontract Ballot {\n  struct Vote {\n        address voter;\n        uint vote;   // index of the voted proposal\n    }\n\n    // This is a type for a single proposal.\n    struct Proposal {\n        string name;   // short name (up to 32 bytes)\n    }\n\n    event VoteLog (address indexed from, string proposal);\n\n\n    // A dynamically-sized array of `Proposal` structs.\n    Proposal[] proposals;\n\n    mapping(address => uint) public votes;\n    //This will be used to iterate over votes to determine a winner\n    address[] public alreadyVoted;\n\n    // will be used to calculate current RAW state of voting\n    mapping(uint => address[]) votersPerOption;\n\n    address[] remainingVotersTemp;\n    /// Create a new ballot to choose one of `proposalNames`.\n    constructor(string[] memory proposalNames) {\n      // For each of the provided proposal names,\n      // create a new proposal object and add it\n      // to the end of the array.\n      proposals.push(Proposal({\n            name: 'EMPTY PROPOSAL'\n      }));\n      for (uint i = 0; i < proposalNames.length; i++) {\n          proposals.push(Proposal({\n            name: proposalNames[i]\n          }));\n      }\n    }\n\n    function checkExistingVoter(address voter) public view returns (bool existingVoter) {\n      // if mapping is truly initialized with all 0\n      // existingVoter = votes[voter] == 0;\n\n      // Checking if person already voted in a more surefire way\n      for (uint i = 0; i < alreadyVoted.length; i++) {\n        address earlierVoter = alreadyVoted[i];\n        if (voter == earlierVoter) {\n          existingVoter = true;\n          break;\n        }\n      }\n      \n    }\n\n    /// Give your vote (including votes delegated to you)\n    /// to proposal `proposals[proposal].name`.\n    function vote(uint proposal) external payable {\n      // If `proposal` is out of the range of the array,\n      // this will throw automatically and revert all\n      // changes.\n      require(proposal <= proposals.length - 1);\n            \n      emit VoteLog(msg.sender, proposals[proposal].name);\n\n\n      bool existingVoter = checkExistingVoter(msg.sender);\n      uint previousVote = votes[msg.sender];\n      // if person already voted \n      if (!existingVoter) {\n        alreadyVoted.push(msg.sender);\n      }\n\n      // mapping initialised with 0 AFAIK\n      votes[msg.sender] = proposal;\n\n      // add address to the list of voters for option voting state\n      votersPerOption[proposal].push(msg.sender);\n\n      // remove address from previously voted list if voter alrady voted before\n      if (existingVoter) {\n        remainingVotersTemp = new address[](0);\n        for (uint256 i = 0; i < votersPerOption[previousVote].length; i++) {\n          address currentVoter = votersPerOption[previousVote][i];\n          if (currentVoter != msg.sender) {\n            remainingVotersTemp.push(currentVoter);\n          }\n        }\n        votersPerOption[previousVote] = remainingVotersTemp;\n        remainingVotersTemp = new address[](0);\n      }\n    }\n\n    /// Returns addresses for supporters for a given proposal\n    function proposalSupporters(uint proposal) public view\n            returns (Proposal memory, address[] memory)\n    {\n      return (proposals[proposal], votersPerOption[proposal]);\n    }\n\n    function getProposals() public view returns (Proposal[] memory) {\n      return proposals;\n    }\n\n    function getVote() public view returns (uint result) {\n      return votes[msg.sender];\n    }\n\n}\n",
  "sourcePath": "/Users/user/projects/chainlink-hackathon-project/contracts/Ballot.sol",
  "compiler": {
    "name": "solc",
    "version": "0.8.13+commit.abaa5c0e.Emscripten.clang"
  },
  "schemaVersion": "3.4.7",
  "updatedAt": "2022-05-16T19:09:37.237Z",
  "devdoc": {
    "kind": "dev",
    "methods": {},
    "version": 1
  },
  "userdoc": {
    "kind": "user",
    "methods": {
      "constructor": {
        "notice": "Create a new ballot to choose one of `proposalNames`."
      },
      "proposalSupporters(uint256)": {
        "notice": "Returns addresses for supporters for a given proposal"
      },
      "vote(uint256)": {
        "notice": "Give your vote (including votes delegated to you) to proposal `proposals[proposal].name`."
      }
    },
    "version": 1
  }
}