{
  "contractName": "Ballot",
  "abi": [
    {
      "inputs": [
        {
          "internalType": "string[]",
          "name": "proposalNames",
          "type": "string[]"
        }
      ],
      "stateMutability": "nonpayable",
      "type": "constructor"
    },
    {
      "inputs": [
        {
          "internalType": "uint256",
          "name": "",
          "type": "uint256"
        }
      ],
      "name": "alreadyVoted",
      "outputs": [
        {
          "internalType": "address",
          "name": "",
          "type": "address"
        }
      ],
      "stateMutability": "view",
      "type": "function"
    },
    {
      "inputs": [
        {
          "internalType": "address",
          "name": "",
          "type": "address"
        }
      ],
      "name": "votes",
      "outputs": [
        {
          "internalType": "uint256",
          "name": "",
          "type": "uint256"
        }
      ],
      "stateMutability": "view",
      "type": "function"
    },
    {
      "inputs": [
        {
          "internalType": "address",
          "name": "voter",
          "type": "address"
        }
      ],
      "name": "checkExistingVoter",
      "outputs": [
        {
          "internalType": "bool",
          "name": "existingVoter",
          "type": "bool"
        }
      ],
      "stateMutability": "view",
      "type": "function"
    },
    {
      "inputs": [
        {
          "internalType": "uint256",
          "name": "proposal",
          "type": "uint256"
        }
      ],
      "name": "vote",
      "outputs": [],
      "stateMutability": "payable",
      "type": "function"
    },
    {
      "inputs": [
        {
          "internalType": "uint256",
          "name": "proposal",
          "type": "uint256"
        }
      ],
      "name": "proposalSupporters",
      "outputs": [
        {
          "components": [
            {
              "internalType": "string",
              "name": "name",
              "type": "string"
            }
          ],
          "internalType": "struct Ballot.Proposal",
          "name": "",
          "type": "tuple"
        },
        {
          "internalType": "address[]",
          "name": "",
          "type": "address[]"
        }
      ],
      "stateMutability": "view",
      "type": "function"
    },
    {
      "inputs": [],
      "name": "getProposals",
      "outputs": [
        {
          "components": [
            {
              "internalType": "string",
              "name": "name",
              "type": "string"
            }
          ],
          "internalType": "struct Ballot.Proposal[]",
          "name": "",
          "type": "tuple[]"
        }
      ],
      "stateMutability": "view",
      "type": "function"
    }
  ],
  "bytecode": "0x60806040523480156200001157600080fd5b50604051620015b6380380620015b68339818101604052810190620000379190620004ab565b600060405180602001604052806040518060400160405280600e81526020017f454d5054592050524f504f53414c000000000000000000000000000000000000815250815250908060018154018082558091505060019003906000526020600020016000909190919091506000820151816000019080519060200190620000c092919062000162565b50505060005b81518110156200015a5760006040518060200160405280848481518110620000f357620000f2620004fc565b5b60200260200101518152509080600181540180825580915050600190039060005260206000200160009091909190915060008201518160000190805190602001906200014192919062000162565b5050508080620001519062000564565b915050620000c6565b505062000615565b8280546200017090620005e0565b90600052602060002090601f016020900481019282620001945760008555620001e0565b82601f10620001af57805160ff1916838001178555620001e0565b82800160010185558215620001e0579182015b82811115620001df578251825591602001919060010190620001c2565b5b509050620001ef9190620001f3565b5090565b5b808211156200020e576000816000905550600101620001f4565b5090565b6000604051905090565b600080fd5b600080fd5b600080fd5b6000601f19601f8301169050919050565b7f4e487b7100000000000000000000000000000000000000000000000000000000600052604160045260246000fd5b62000276826200022b565b810181811067ffffffffffffffff821117156200029857620002976200023c565b5b80604052505050565b6000620002ad62000212565b9050620002bb82826200026b565b919050565b600067ffffffffffffffff821115620002de57620002dd6200023c565b5b602082029050602081019050919050565b600080fd5b600080fd5b600067ffffffffffffffff8211156200031757620003166200023c565b5b62000322826200022b565b9050602081019050919050565b60005b838110156200034f57808201518184015260208101905062000332565b838111156200035f576000848401525b50505050565b60006200037c6200037684620002f9565b620002a1565b9050828152602081018484840111156200039b576200039a620002f4565b5b620003a88482856200032f565b509392505050565b600082601f830112620003c857620003c762000226565b5b8151620003da84826020860162000365565b91505092915050565b6000620003fa620003f484620002c0565b620002a1565b9050808382526020820190506020840283018581111562000420576200041f620002ef565b5b835b818110156200046e57805167ffffffffffffffff81111562000449576200044862000226565b5b808601620004588982620003b0565b8552602085019450505060208101905062000422565b5050509392505050565b600082601f83011262000490576200048f62000226565b5b8151620004a2848260208601620003e3565b91505092915050565b600060208284031215620004c457620004c36200021c565b5b600082015167ffffffffffffffff811115620004e557620004e462000221565b5b620004f38482850162000478565b91505092915050565b7f4e487b7100000000000000000000000000000000000000000000000000000000600052603260045260246000fd5b7f4e487b7100000000000000000000000000000000000000000000000000000000600052601160045260246000fd5b6000819050919050565b600062000571826200055a565b91507fffffffffffffffffffffffffffffffffffffffffffffffffffffffffffffffff8203620005a657620005a56200052b565b5b600182019050919050565b7f4e487b7100000000000000000000000000000000000000000000000000000000600052602260045260246000fd5b60006002820490506001821680620005f957607f821691505b6020821081036200060f576200060e620005b1565b5b50919050565b610f9180620006256000396000f3fe6080604052600436106100555760003560e01c80630121b93f1461005a578063333b28be1461007657806362564c48146100b3578063b1e7a1f0146100de578063ccfd945c1461011b578063d8bff5a514610159575b600080fd5b610074600480360381019061006f91906109ea565b610196565b005b34801561008257600080fd5b5061009d60048036038101906100989190610a75565b610544565b6040516100aa9190610abd565b60405180910390f35b3480156100bf57600080fd5b506100c86105f3565b6040516100d59190610c5d565b60405180910390f35b3480156100ea57600080fd5b50610105600480360381019061010091906109ea565b6106e0565b6040516101129190610c8e565b60405180910390f35b34801561012757600080fd5b50610142600480360381019061013d91906109ea565b61071f565b604051610150929190610d91565b60405180910390f35b34801561016557600080fd5b50610180600480360381019061017b9190610a75565b61088b565b60405161018d9190610dd7565b60405180910390f35b600081141580156101b8575060016000805490506101b49190610e21565b8111155b6101c157600080fd5b60006101cc33610544565b90506000600160003373ffffffffffffffffffffffffffffffffffffffff1673ffffffffffffffffffffffffffffffffffffffff1681526020019081526020016000205490508161027b576002339080600181540180825580915050600190039060005260206000200160009091909190916101000a81548173ffffffffffffffffffffffffffffffffffffffff021916908373ffffffffffffffffffffffffffffffffffffffff1602179055505b82600160003373ffffffffffffffffffffffffffffffffffffffff1673ffffffffffffffffffffffffffffffffffffffff1681526020019081526020016000208190555060036000848152602001908152602001600020339080600181540180825580915050600190039060005260206000200160009091909190916101000a81548173ffffffffffffffffffffffffffffffffffffffff021916908373ffffffffffffffffffffffffffffffffffffffff160217905550811561053f57600067ffffffffffffffff81111561035457610353610e55565b5b6040519080825280602002602001820160405280156103825781602001602082028036833780820191505090505b50600490805190602001906103989291906108a3565b5060005b60036000838152602001908152602001600020805490508110156104b95760006003600084815260200190815260200160002082815481106103e1576103e0610e84565b5b9060005260206000200160009054906101000a900473ffffffffffffffffffffffffffffffffffffffff1690503373ffffffffffffffffffffffffffffffffffffffff168173ffffffffffffffffffffffffffffffffffffffff16146104a5576004819080600181540180825580915050600190039060005260206000200160009091909190916101000a81548173ffffffffffffffffffffffffffffffffffffffff021916908373ffffffffffffffffffffffffffffffffffffffff1602179055505b5080806104b190610eb3565b91505061039c565b506004600360008381526020019081526020016000209080546104dd92919061092d565b50600067ffffffffffffffff8111156104f9576104f8610e55565b5b6040519080825280602002602001820160405280156105275781602001602082028036833780820191505090505b506004908051906020019061053d9291906108a3565b505b505050565b600080600090505b6002805490508110156105ed5760006002828154811061056f5761056e610e84565b5b9060005260206000200160009054906101000a900473ffffffffffffffffffffffffffffffffffffffff1690508073ffffffffffffffffffffffffffffffffffffffff168473ffffffffffffffffffffffffffffffffffffffff16036105d95760019250506105ed565b5080806105e590610eb3565b91505061054c565b50919050565b60606000805480602002602001604051908101604052809291908181526020016000905b828210156106d75783829060005260206000200160405180602001604052908160008201805461064690610f2a565b80601f016020809104026020016040519081016040528092919081815260200182805461067290610f2a565b80156106bf5780601f10610694576101008083540402835291602001916106bf565b820191906000526020600020905b8154815290600101906020018083116106a257829003601f168201915b50505050508152505081526020019060010190610617565b50505050905090565b600281815481106106f057600080fd5b906000526020600020016000915054906101000a900473ffffffffffffffffffffffffffffffffffffffff1681565b61072761097f565b60606000838154811061073d5761073c610e84565b5b90600052602060002001600360008581526020019081526020016000208160405180602001604052908160008201805461077690610f2a565b80601f01602080910402602001604051908101604052809291908181526020018280546107a290610f2a565b80156107ef5780601f106107c4576101008083540402835291602001916107ef565b820191906000526020600020905b8154815290600101906020018083116107d257829003601f168201915b50505050508152505091508080548060200260200160405190810160405280929190818152602001828054801561087b57602002820191906000526020600020905b8160009054906101000a900473ffffffffffffffffffffffffffffffffffffffff1673ffffffffffffffffffffffffffffffffffffffff1681526020019060010190808311610831575b5050505050905091509150915091565b60016020528060005260406000206000915090505481565b82805482825590600052602060002090810192821561091c579160200282015b8281111561091b5782518260006101000a81548173ffffffffffffffffffffffffffffffffffffffff021916908373ffffffffffffffffffffffffffffffffffffffff160217905550916020019190600101906108c3565b5b5090506109299190610992565b5090565b82805482825590600052602060002090810192821561096e5760005260206000209182015b8281111561096d578254825591600101919060010190610952565b5b50905061097b9190610992565b5090565b6040518060200160405280606081525090565b5b808211156109ab576000816000905550600101610993565b5090565b600080fd5b6000819050919050565b6109c7816109b4565b81146109d257600080fd5b50565b6000813590506109e4816109be565b92915050565b600060208284031215610a00576109ff6109af565b5b6000610a0e848285016109d5565b91505092915050565b600073ffffffffffffffffffffffffffffffffffffffff82169050919050565b6000610a4282610a17565b9050919050565b610a5281610a37565b8114610a5d57600080fd5b50565b600081359050610a6f81610a49565b92915050565b600060208284031215610a8b57610a8a6109af565b5b6000610a9984828501610a60565b91505092915050565b60008115159050919050565b610ab781610aa2565b82525050565b6000602082019050610ad26000830184610aae565b92915050565b600081519050919050565b600082825260208201905092915050565b6000819050602082019050919050565b600081519050919050565b600082825260208201905092915050565b60005b83811015610b3e578082015181840152602081019050610b23565b83811115610b4d576000848401525b50505050565b6000601f19601f8301169050919050565b6000610b6f82610b04565b610b798185610b0f565b9350610b89818560208601610b20565b610b9281610b53565b840191505092915050565b60006020830160008301518482036000860152610bba8282610b64565b9150508091505092915050565b6000610bd38383610b9d565b905092915050565b6000602082019050919050565b6000610bf382610ad8565b610bfd8185610ae3565b935083602082028501610c0f85610af4565b8060005b85811015610c4b5784840389528151610c2c8582610bc7565b9450610c3783610bdb565b925060208a01995050600181019050610c13565b50829750879550505050505092915050565b60006020820190508181036000830152610c778184610be8565b905092915050565b610c8881610a37565b82525050565b6000602082019050610ca36000830184610c7f565b92915050565b60006020830160008301518482036000860152610cc68282610b64565b9150508091505092915050565b600081519050919050565b600082825260208201905092915050565b6000819050602082019050919050565b610d0881610a37565b82525050565b6000610d1a8383610cff565b60208301905092915050565b6000602082019050919050565b6000610d3e82610cd3565b610d488185610cde565b9350610d5383610cef565b8060005b83811015610d84578151610d6b8882610d0e565b9750610d7683610d26565b925050600181019050610d57565b5085935050505092915050565b60006040820190508181036000830152610dab8185610ca9565b90508181036020830152610dbf8184610d33565b90509392505050565b610dd1816109b4565b82525050565b6000602082019050610dec6000830184610dc8565b92915050565b7f4e487b7100000000000000000000000000000000000000000000000000000000600052601160045260246000fd5b6000610e2c826109b4565b9150610e37836109b4565b925082821015610e4a57610e49610df2565b5b828203905092915050565b7f4e487b7100000000000000000000000000000000000000000000000000000000600052604160045260246000fd5b7f4e487b7100000000000000000000000000000000000000000000000000000000600052603260045260246000fd5b6000610ebe826109b4565b91507fffffffffffffffffffffffffffffffffffffffffffffffffffffffffffffffff8203610ef057610eef610df2565b5b600182019050919050565b7f4e487b7100000000000000000000000000000000000000000000000000000000600052602260045260246000fd5b60006002820490506001821680610f4257607f821691505b602082108103610f5557610f54610efb565b5b5091905056fea2646970667358221220aab7459b0e37bfc20f093743c72a540916c96fb5484f805441c4b3a90c629f8a64736f6c634300080d0033",
  "immutableReferences": {},
  "source": "// SPDX-License-Identifier: GPL-3.0\npragma solidity >=0.7.0 <0.9.0;\n\ncontract Ballot {\n  struct Vote {\n        address voter;\n        uint vote;   // index of the voted proposal\n    }\n\n    // This is a type for a single proposal.\n    struct Proposal {\n        string name;   // short name (up to 32 bytes)\n    }\n\n    // A dynamically-sized array of `Proposal` structs.\n    Proposal[] proposals;\n\n    mapping(address => uint) public votes;\n    //This will be used to iterate over votes to determine a winner\n    address[] public alreadyVoted;\n\n    // will be used to calculate current RAW state of voting\n    mapping(uint => address[]) votersPerOption;\n\n    address[] remainingVotersTemp;\n    /// Create a new ballot to choose one of `proposalNames`.\n    constructor(string[] memory proposalNames) {\n      // For each of the provided proposal names,\n      // create a new proposal object and add it\n      // to the end of the array.\n      proposals.push(Proposal({\n            name: 'EMPTY PROPOSAL'\n      }));\n      for (uint i = 0; i < proposalNames.length; i++) {\n          proposals.push(Proposal({\n            name: proposalNames[i]\n          }));\n      }\n    }\n\n    function checkExistingVoter(address voter) public view returns (bool existingVoter) {\n      // if mapping is truly initialized with all 0\n      // existingVoter = votes[voter] == 0;\n\n      // Checking if person already voted in a more surefire way\n      for (uint i = 0; i < alreadyVoted.length; i++) {\n        address earlierVoter = alreadyVoted[i];\n        if (voter == earlierVoter) {\n          existingVoter = true;\n          break;\n        }\n      }\n      \n    }\n\n    /// Give your vote (including votes delegated to you)\n    /// to proposal `proposals[proposal].name`.\n    function vote(uint proposal) external payable {\n      // If `proposal` is out of the range of the array,\n      // this will throw automatically and revert all\n      // changes.\n      require(proposal !=0 && proposal <= proposals.length - 1);\n\n      bool existingVoter = checkExistingVoter(msg.sender);\n      uint previousVote = votes[msg.sender];\n      // if person already voted \n      if (!existingVoter) {\n        alreadyVoted.push(msg.sender);\n      }\n\n      // mapping initialised with 0 AFAIK\n      votes[msg.sender] = proposal;\n\n      // add address to the list of voters for option voting state\n      votersPerOption[proposal].push(msg.sender);\n\n      // remove address from previously voted list if voter alrady voted before\n      if (existingVoter) {\n        remainingVotersTemp = new address[](0);\n        for (uint256 i = 0; i < votersPerOption[previousVote].length; i++) {\n          address currentVoter = votersPerOption[previousVote][i];\n          if (currentVoter != msg.sender) {\n            remainingVotersTemp.push(currentVoter);\n          }\n        }\n        votersPerOption[previousVote] = remainingVotersTemp;\n        remainingVotersTemp = new address[](0);\n      }\n    }\n\n    /// @dev Computes the winning proposal taking all\n    /// previous votes into account.\n    function proposalSupporters(uint proposal) public view\n            returns (Proposal memory, address[] memory)\n    {\n      return (proposals[proposal], votersPerOption[proposal]);\n    }\n\n    function getProposals() public view returns (Proposal[] memory) {\n      return proposals;\n    }\n}",
  "sourcePath": "/Users/user/projects/chainlink-hackathon-project/contracts/Ballot.sol",
  "compiler": {
    "name": "solc",
    "version": "0.8.13+commit.abaa5c0e.Emscripten.clang"
  },
  "schemaVersion": "3.4.7",
  "updatedAt": "2022-05-09T13:34:39.119Z",
  "devdoc": {
    "kind": "dev",
    "methods": {
      "proposalSupporters(uint256)": {
        "details": "Computes the winning proposal taking all previous votes into account."
      }
    },
    "version": 1
  },
  "userdoc": {
    "kind": "user",
    "methods": {
      "constructor": {
        "notice": "Create a new ballot to choose one of `proposalNames`."
      },
      "vote(uint256)": {
        "notice": "Give your vote (including votes delegated to you) to proposal `proposals[proposal].name`."
      }
    },
    "version": 1
  }
}