{
  "contractName": "BallotWithKeepers",
  "abi": [
    {
      "inputs": [
        {
          "internalType": "string[]",
          "name": "proposalNames",
          "type": "string[]"
        }
      ],
      "stateMutability": "nonpayable",
      "type": "constructor"
    },
    {
      "anonymous": false,
      "inputs": [
        {
          "indexed": true,
          "internalType": "address",
          "name": "from",
          "type": "address"
        },
        {
          "indexed": false,
          "internalType": "string",
          "name": "proposal",
          "type": "string"
        }
      ],
      "name": "VoteLog",
      "type": "event"
    },
    {
      "inputs": [
        {
          "internalType": "uint256",
          "name": "",
          "type": "uint256"
        }
      ],
      "name": "alreadyVoted",
      "outputs": [
        {
          "internalType": "address",
          "name": "",
          "type": "address"
        }
      ],
      "stateMutability": "view",
      "type": "function",
      "constant": true
    },
    {
      "inputs": [
        {
          "internalType": "address",
          "name": "",
          "type": "address"
        }
      ],
      "name": "votes",
      "outputs": [
        {
          "internalType": "uint256",
          "name": "",
          "type": "uint256"
        }
      ],
      "stateMutability": "view",
      "type": "function",
      "constant": true
    },
    {
      "inputs": [
        {
          "internalType": "address",
          "name": "voter",
          "type": "address"
        }
      ],
      "name": "checkExistingVoter",
      "outputs": [
        {
          "internalType": "bool",
          "name": "existingVoter",
          "type": "bool"
        }
      ],
      "stateMutability": "view",
      "type": "function",
      "constant": true
    },
    {
      "inputs": [
        {
          "internalType": "uint256",
          "name": "proposal",
          "type": "uint256"
        }
      ],
      "name": "vote",
      "outputs": [],
      "stateMutability": "payable",
      "type": "function",
      "payable": true
    },
    {
      "inputs": [
        {
          "internalType": "uint256",
          "name": "proposal",
          "type": "uint256"
        }
      ],
      "name": "proposalSupporters",
      "outputs": [
        {
          "components": [
            {
              "internalType": "string",
              "name": "name",
              "type": "string"
            }
          ],
          "internalType": "struct BallotWithKeepers.Proposal",
          "name": "",
          "type": "tuple"
        },
        {
          "internalType": "address[]",
          "name": "",
          "type": "address[]"
        }
      ],
      "stateMutability": "view",
      "type": "function",
      "constant": true
    },
    {
      "inputs": [],
      "name": "getProposals",
      "outputs": [
        {
          "components": [
            {
              "internalType": "string",
              "name": "name",
              "type": "string"
            }
          ],
          "internalType": "struct BallotWithKeepers.Proposal[]",
          "name": "",
          "type": "tuple[]"
        }
      ],
      "stateMutability": "view",
      "type": "function",
      "constant": true
    },
    {
      "inputs": [],
      "name": "getVote",
      "outputs": [
        {
          "internalType": "uint256",
          "name": "result",
          "type": "uint256"
        }
      ],
      "stateMutability": "view",
      "type": "function",
      "constant": true
    },
    {
      "inputs": [
        {
          "internalType": "bytes",
          "name": "",
          "type": "bytes"
        }
      ],
      "name": "checkUpkeep",
      "outputs": [
        {
          "internalType": "bool",
          "name": "upkeepNeeded",
          "type": "bool"
        },
        {
          "internalType": "bytes",
          "name": "",
          "type": "bytes"
        }
      ],
      "stateMutability": "view",
      "type": "function",
      "constant": true
    },
    {
      "inputs": [
        {
          "internalType": "bytes",
          "name": "",
          "type": "bytes"
        }
      ],
      "name": "performUpkeep",
      "outputs": [],
      "stateMutability": "nonpayable",
      "type": "function"
    }
  ],
  "bytecode": "0x60806040523480156200001157600080fd5b50604051620019a4380380620019a48339818101604052810190620000379190620004c5565b600160405180602001604052806040518060400160405280600e81526020017f454d5054592050524f504f53414c000000000000000000000000000000000000815250815250908060018154018082558091505060019003906000526020600020016000909190919091506000820151816000019080519060200190620000c09291906200017c565b50505060008060006101000a81548160ff02191690831515021790555060005b81518110156200017457600160405180602001604052808484815181106200010d576200010c62000516565b5b60200260200101518152509080600181540180825580915050600190039060005260206000200160009091909190915060008201518160000190805190602001906200015b9291906200017c565b50505080806200016b906200057e565b915050620000e0565b50506200062f565b8280546200018a90620005fa565b90600052602060002090601f016020900481019282620001ae5760008555620001fa565b82601f10620001c957805160ff1916838001178555620001fa565b82800160010185558215620001fa579182015b82811115620001f9578251825591602001919060010190620001dc565b5b5090506200020991906200020d565b5090565b5b80821115620002285760008160009055506001016200020e565b5090565b6000604051905090565b600080fd5b600080fd5b600080fd5b6000601f19601f8301169050919050565b7f4e487b7100000000000000000000000000000000000000000000000000000000600052604160045260246000fd5b620002908262000245565b810181811067ffffffffffffffff82111715620002b257620002b162000256565b5b80604052505050565b6000620002c76200022c565b9050620002d5828262000285565b919050565b600067ffffffffffffffff821115620002f857620002f762000256565b5b602082029050602081019050919050565b600080fd5b600080fd5b600067ffffffffffffffff82111562000331576200033062000256565b5b6200033c8262000245565b9050602081019050919050565b60005b83811015620003695780820151818401526020810190506200034c565b8381111562000379576000848401525b50505050565b600062000396620003908462000313565b620002bb565b905082815260208101848484011115620003b557620003b46200030e565b5b620003c284828562000349565b509392505050565b600082601f830112620003e257620003e162000240565b5b8151620003f48482602086016200037f565b91505092915050565b6000620004146200040e84620002da565b620002bb565b905080838252602082019050602084028301858111156200043a576200043962000309565b5b835b818110156200048857805167ffffffffffffffff81111562000463576200046262000240565b5b808601620004728982620003ca565b855260208501945050506020810190506200043c565b5050509392505050565b600082601f830112620004aa57620004a962000240565b5b8151620004bc848260208601620003fd565b91505092915050565b600060208284031215620004de57620004dd62000236565b5b600082015167ffffffffffffffff811115620004ff57620004fe6200023b565b5b6200050d8482850162000492565b91505092915050565b7f4e487b7100000000000000000000000000000000000000000000000000000000600052603260045260246000fd5b7f4e487b7100000000000000000000000000000000000000000000000000000000600052601160045260246000fd5b6000819050919050565b60006200058b8262000574565b91507fffffffffffffffffffffffffffffffffffffffffffffffffffffffffffffffff8203620005c057620005bf62000545565b5b600182019050919050565b7f4e487b7100000000000000000000000000000000000000000000000000000000600052602260045260246000fd5b600060028204905060018216806200061357607f821691505b602082108103620006295762000628620005cb565b5b50919050565b611365806200063f6000396000f3fe6080604052600436106100865760003560e01c806362564c481161005957806362564c48146101385780636e04ff0d14610163578063b1e7a1f0146101a1578063ccfd945c146101de578063d8bff5a51461021c57610086565b80630121b93f1461008b5780630242f351146100a7578063333b28be146100d25780634585e33b1461010f575b600080fd5b6100a560048036038101906100a09190610bbf565b610259565b005b3480156100b357600080fd5b506100bc610443565b6040516100c99190610bfb565b60405180910390f35b3480156100de57600080fd5b506100f960048036038101906100f49190610c74565b61048a565b6040516101069190610cbc565b60405180910390f35b34801561011b57600080fd5b5061013660048036038101906101319190610d3c565b610539565b005b34801561014457600080fd5b5061014d610793565b60405161015a9190610f0e565b60405180910390f35b34801561016f57600080fd5b5061018a60048036038101906101859190610d3c565b610880565b604051610198929190610f85565b60405180910390f35b3480156101ad57600080fd5b506101c860048036038101906101c39190610bbf565b6108b0565b6040516101d59190610fc4565b60405180910390f35b3480156101ea57600080fd5b5061020560048036038101906102009190610bbf565b6108ef565b6040516102139291906110c7565b60405180910390f35b34801561022857600080fd5b50610243600480360381019061023e9190610c74565b610a5b565b6040516102509190610bfb565b60405180910390f35b6001808054905061026a919061112d565b81111561027657600080fd5b3373ffffffffffffffffffffffffffffffffffffffff167fa7d8a52d379fe42a0c9a27542d0670acc61e170cf5ad80cc7df6b1665c2f1078600183815481106102c2576102c1611161565b5b906000526020600020016000016040516102dc9190611296565b60405180910390a260008054906101000a900460ff166103115760016000806101000a81548160ff0219169083151502179055505b600061031c3361048a565b905080610387576003339080600181540180825580915050600190039060005260206000200160009091909190916101000a81548173ffffffffffffffffffffffffffffffffffffffff021916908373ffffffffffffffffffffffffffffffffffffffff1602179055505b81600260003373ffffffffffffffffffffffffffffffffffffffff1673ffffffffffffffffffffffffffffffffffffffff1681526020019081526020016000208190555060046000838152602001908152602001600020339080600181540180825580915050600190039060005260206000200160009091909190916101000a81548173ffffffffffffffffffffffffffffffffffffffff021916908373ffffffffffffffffffffffffffffffffffffffff1602179055505050565b6000600260003373ffffffffffffffffffffffffffffffffffffffff1673ffffffffffffffffffffffffffffffffffffffff16815260200190815260200160002054905090565b600080600090505b600380549050811015610533576000600382815481106104b5576104b4611161565b5b9060005260206000200160009054906101000a900473ffffffffffffffffffffffffffffffffffffffff1690508073ffffffffffffffffffffffffffffffffffffffff168473ffffffffffffffffffffffffffffffffffffffff160361051f576001925050610533565b50808061052b906112b8565b915050610492565b50919050565b600067ffffffffffffffff81111561055457610553611300565b5b6040519080825280602002602001820160405280156105825781602001602082028036833780820191505090505b5060059080519060200190610598929190610a73565b5060005b6001805490508110156107745760005b60046000838152602001908152602001600020805490508110156106dc5760006004600084815260200190815260200160002082815481106105f1576105f0611161565b5b9060005260206000200160009054906101000a900473ffffffffffffffffffffffffffffffffffffffff16905082600260008373ffffffffffffffffffffffffffffffffffffffff1673ffffffffffffffffffffffffffffffffffffffff16815260200190815260200160002054036106c8576005819080600181540180825580915050600190039060005260206000200160009091909190916101000a81548173ffffffffffffffffffffffffffffffffffffffff021916908373ffffffffffffffffffffffffffffffffffffffff1602179055505b5080806106d4906112b8565b9150506105ac565b50600560046000838152602001908152602001600020908054610700929190610afd565b50600067ffffffffffffffff81111561071c5761071b611300565b5b60405190808252806020026020018201604052801561074a5781602001602082028036833780820191505090505b5060059080519060200190610760929190610a73565b50808061076c906112b8565b91505061059c565b5060008060006101000a81548160ff0219169083151502179055505050565b60606001805480602002602001604051908101604052809291908181526020016000905b82821015610877578382906000526020600020016040518060200160405290816000820180546107e6906111bf565b80601f0160208091040260200160405190810160405280929190818152602001828054610812906111bf565b801561085f5780601f106108345761010080835404028352916020019161085f565b820191906000526020600020905b81548152906001019060200180831161084257829003601f168201915b505050505081525050815260200190600101906107b7565b50505050905090565b6000606060008054906101000a900460ff1691508160405180602001604052806000815250915091509250929050565b600381815481106108c057600080fd5b906000526020600020016000915054906101000a900473ffffffffffffffffffffffffffffffffffffffff1681565b6108f7610b4f565b60606001838154811061090d5761090c611161565b5b906000526020600020016004600085815260200190815260200160002081604051806020016040529081600082018054610946906111bf565b80601f0160208091040260200160405190810160405280929190818152602001828054610972906111bf565b80156109bf5780601f10610994576101008083540402835291602001916109bf565b820191906000526020600020905b8154815290600101906020018083116109a257829003601f168201915b505050505081525050915080805480602002602001604051908101604052809291908181526020018280548015610a4b57602002820191906000526020600020905b8160009054906101000a900473ffffffffffffffffffffffffffffffffffffffff1673ffffffffffffffffffffffffffffffffffffffff1681526020019060010190808311610a01575b5050505050905091509150915091565b60026020528060005260406000206000915090505481565b828054828255906000526020600020908101928215610aec579160200282015b82811115610aeb5782518260006101000a81548173ffffffffffffffffffffffffffffffffffffffff021916908373ffffffffffffffffffffffffffffffffffffffff16021790555091602001919060010190610a93565b5b509050610af99190610b62565b5090565b828054828255906000526020600020908101928215610b3e5760005260206000209182015b82811115610b3d578254825591600101919060010190610b22565b5b509050610b4b9190610b62565b5090565b6040518060200160405280606081525090565b5b80821115610b7b576000816000905550600101610b63565b5090565b600080fd5b600080fd5b6000819050919050565b610b9c81610b89565b8114610ba757600080fd5b50565b600081359050610bb981610b93565b92915050565b600060208284031215610bd557610bd4610b7f565b5b6000610be384828501610baa565b91505092915050565b610bf581610b89565b82525050565b6000602082019050610c106000830184610bec565b92915050565b600073ffffffffffffffffffffffffffffffffffffffff82169050919050565b6000610c4182610c16565b9050919050565b610c5181610c36565b8114610c5c57600080fd5b50565b600081359050610c6e81610c48565b92915050565b600060208284031215610c8a57610c89610b7f565b5b6000610c9884828501610c5f565b91505092915050565b60008115159050919050565b610cb681610ca1565b82525050565b6000602082019050610cd16000830184610cad565b92915050565b600080fd5b600080fd5b600080fd5b60008083601f840112610cfc57610cfb610cd7565b5b8235905067ffffffffffffffff811115610d1957610d18610cdc565b5b602083019150836001820283011115610d3557610d34610ce1565b5b9250929050565b60008060208385031215610d5357610d52610b7f565b5b600083013567ffffffffffffffff811115610d7157610d70610b84565b5b610d7d85828601610ce6565b92509250509250929050565b600081519050919050565b600082825260208201905092915050565b6000819050602082019050919050565b600081519050919050565b600082825260208201905092915050565b60005b83811015610def578082015181840152602081019050610dd4565b83811115610dfe576000848401525b50505050565b6000601f19601f8301169050919050565b6000610e2082610db5565b610e2a8185610dc0565b9350610e3a818560208601610dd1565b610e4381610e04565b840191505092915050565b60006020830160008301518482036000860152610e6b8282610e15565b9150508091505092915050565b6000610e848383610e4e565b905092915050565b6000602082019050919050565b6000610ea482610d89565b610eae8185610d94565b935083602082028501610ec085610da5565b8060005b85811015610efc5784840389528151610edd8582610e78565b9450610ee883610e8c565b925060208a01995050600181019050610ec4565b50829750879550505050505092915050565b60006020820190508181036000830152610f288184610e99565b905092915050565b600081519050919050565b600082825260208201905092915050565b6000610f5782610f30565b610f618185610f3b565b9350610f71818560208601610dd1565b610f7a81610e04565b840191505092915050565b6000604082019050610f9a6000830185610cad565b8181036020830152610fac8184610f4c565b90509392505050565b610fbe81610c36565b82525050565b6000602082019050610fd96000830184610fb5565b92915050565b60006020830160008301518482036000860152610ffc8282610e15565b9150508091505092915050565b600081519050919050565b600082825260208201905092915050565b6000819050602082019050919050565b61103e81610c36565b82525050565b60006110508383611035565b60208301905092915050565b6000602082019050919050565b600061107482611009565b61107e8185611014565b935061108983611025565b8060005b838110156110ba5781516110a18882611044565b97506110ac8361105c565b92505060018101905061108d565b5085935050505092915050565b600060408201905081810360008301526110e18185610fdf565b905081810360208301526110f58184611069565b90509392505050565b7f4e487b7100000000000000000000000000000000000000000000000000000000600052601160045260246000fd5b600061113882610b89565b915061114383610b89565b925082821015611156576111556110fe565b5b828203905092915050565b7f4e487b7100000000000000000000000000000000000000000000000000000000600052603260045260246000fd5b7f4e487b7100000000000000000000000000000000000000000000000000000000600052602260045260246000fd5b600060028204905060018216806111d757607f821691505b6020821081036111ea576111e9611190565b5b50919050565b600082825260208201905092915050565b60008190508160005260206000209050919050565b60008154611223816111bf565b61122d81866111f0565b94506001821660008114611248576001811461125a5761128d565b60ff198316865260208601935061128d565b61126385611201565b60005b8381101561128557815481890152600182019150602081019050611266565b808801955050505b50505092915050565b600060208201905081810360008301526112b08184611216565b905092915050565b60006112c382610b89565b91507fffffffffffffffffffffffffffffffffffffffffffffffffffffffffffffffff82036112f5576112f46110fe565b5b600182019050919050565b7f4e487b7100000000000000000000000000000000000000000000000000000000600052604160045260246000fdfea2646970667358221220a5528e00aa379cb0a04c3783b2a004850b7d86c733b9934ff5b5f576d9418c7c64736f6c634300080d0033",
  "immutableReferences": {},
  "source": "// SPDX-License-Identifier: GPL-3.0\npragma solidity >=0.7.0 <0.9.0;\n\nimport \"@chainlink/contracts/src/v0.8/KeeperCompatible.sol\";\n\ncontract BallotWithKeepers is KeeperCompatibleInterface {\n  struct Vote {\n        address voter;\n        uint vote;   // index of the voted proposal\n    }\n\n    // This is a type for a single proposal.\n    struct Proposal {\n        string name;   // short name (up to 32 bytes)\n    }\n\n    event VoteLog (address indexed from, string proposal);\n\n\n    bool newVotesSinceLastBlock;\n    // A dynamically-sized array of `Proposal` structs.\n    Proposal[] proposals;\n\n    mapping(address => uint) public votes;\n    //This will be used to iterate over votes to determine a winner\n    address[] public alreadyVoted;\n\n    // will be used to calculate current RAW state of voting\n    mapping(uint => address[]) votersPerOption;\n\n    address[] remainingVotersTemp;\n    /// Create a new ballot to choose one of `proposalNames`.\n    constructor(string[] memory proposalNames) {\n      // For each of the provided proposal names,\n      // create a new proposal object and add it\n      // to the end of the array.\n      proposals.push(Proposal({\n            name: 'EMPTY PROPOSAL'\n      }));\n      newVotesSinceLastBlock = false;\n      for (uint i = 0; i < proposalNames.length; i++) {\n          proposals.push(Proposal({\n            name: proposalNames[i]\n          }));\n      }\n    }\n\n    function checkExistingVoter(address voter) public view returns (bool existingVoter) {\n      // if mapping is truly initialized with all 0\n      // existingVoter = votes[voter] == 0;\n\n      // Checking if person already voted in a more surefire way\n      for (uint i = 0; i < alreadyVoted.length; i++) {\n        address earlierVoter = alreadyVoted[i];\n        if (voter == earlierVoter) {\n          existingVoter = true;\n          break;\n        }\n      }\n      \n    }\n\n    /// Give your vote (including votes delegated to you)\n    /// to proposal `proposals[proposal].name`.\n    function vote(uint proposal) external payable {\n      // If `proposal` is out of the range of the array,\n      // this will throw automatically and revert all\n      // changes.\n      require(proposal <= proposals.length - 1);\n            \n      emit VoteLog(msg.sender, proposals[proposal].name);\n\n      if(!newVotesSinceLastBlock) {\n        newVotesSinceLastBlock = true;\n      }\n\n\n      bool existingVoter = checkExistingVoter(msg.sender);\n      // if person already voted \n      if (!existingVoter) {\n        alreadyVoted.push(msg.sender);\n      }\n\n      // mapping initialised with 0 AFAIK\n      votes[msg.sender] = proposal;\n\n      // add address to the list of voters for option voting state\n      votersPerOption[proposal].push(msg.sender);\n    }\n\n    /// Returns addresses for supporters for a given proposal\n    function proposalSupporters(uint proposal) public view\n            returns (Proposal memory, address[] memory)\n    {\n      return (proposals[proposal], votersPerOption[proposal]);\n    }\n\n    function getProposals() public view returns (Proposal[] memory) {\n      return proposals;\n    }\n\n    function getVote() public view returns (uint result) {\n      return votes[msg.sender];\n    }\n\n    function checkUpkeep(bytes calldata) external view override returns (bool upkeepNeeded, bytes memory /*performData*/) {\n        upkeepNeeded = newVotesSinceLastBlock;\n        return (upkeepNeeded, \"\");\n    }\n\n    function performUpkeep(bytes calldata) external override {\n      remainingVotersTemp = new address[](0);\n\n      for (uint256 i = 0; i < proposals.length; i++) {\n        for (uint256 j = 0; j < votersPerOption[i].length; j++) {\n          address currentVoter = votersPerOption[i][j];\n          // check for current valid vote\n          if(votes[currentVoter] == i) {\n            remainingVotersTemp.push(currentVoter);\n          }\n        }\n        // filter out outdated votes\n        votersPerOption[i] = remainingVotersTemp;\n\n        remainingVotersTemp = new address[](0);\n      }\n\n      newVotesSinceLastBlock = false;\n    }\n\n}\n",
  "sourcePath": "/Users/user/projects/chainlink-hackathon-project/contracts/BallotWithKeepers.sol",
  "compiler": {
    "name": "solc",
    "version": "0.8.13+commit.abaa5c0e.Emscripten.clang"
  },
  "schemaVersion": "3.4.7",
  "updatedAt": "2022-05-16T19:18:55.815Z",
  "networkType": "ethereum",
  "devdoc": {
    "kind": "dev",
    "methods": {},
    "version": 1
  },
  "userdoc": {
    "kind": "user",
    "methods": {
      "constructor": {
        "notice": "Create a new ballot to choose one of `proposalNames`."
      },
      "proposalSupporters(uint256)": {
        "notice": "Returns addresses for supporters for a given proposal"
      },
      "vote(uint256)": {
        "notice": "Give your vote (including votes delegated to you) to proposal `proposals[proposal].name`."
      }
    },
    "version": 1
  }
}