{
  "contractName": "Ballot",
  "abi": [
    {
      "inputs": [
        {
          "internalType": "string[]",
          "name": "proposalNames",
          "type": "string[]"
        }
      ],
      "stateMutability": "nonpayable",
      "type": "constructor"
    },
    {
      "inputs": [
        {
          "internalType": "uint256",
          "name": "",
          "type": "uint256"
        }
      ],
      "name": "alreadyVoted",
      "outputs": [
        {
          "internalType": "address",
          "name": "",
          "type": "address"
        }
      ],
      "stateMutability": "view",
      "type": "function",
      "constant": true
    },
    {
      "inputs": [
        {
          "internalType": "address",
          "name": "",
          "type": "address"
        }
      ],
      "name": "votes",
      "outputs": [
        {
          "internalType": "uint256",
          "name": "",
          "type": "uint256"
        }
      ],
      "stateMutability": "view",
      "type": "function",
      "constant": true
    },
    {
      "inputs": [
        {
          "internalType": "address",
          "name": "voter",
          "type": "address"
        }
      ],
      "name": "checkExistingVoter",
      "outputs": [
        {
          "internalType": "bool",
          "name": "existingVoter",
          "type": "bool"
        }
      ],
      "stateMutability": "view",
      "type": "function",
      "constant": true
    },
    {
      "inputs": [
        {
          "internalType": "uint256",
          "name": "proposal",
          "type": "uint256"
        }
      ],
      "name": "vote",
      "outputs": [],
      "stateMutability": "payable",
      "type": "function",
      "payable": true
    },
    {
      "inputs": [
        {
          "internalType": "uint256",
          "name": "proposal",
          "type": "uint256"
        }
      ],
      "name": "proposalSupporters",
      "outputs": [
        {
          "components": [
            {
              "internalType": "string",
              "name": "name",
              "type": "string"
            }
          ],
          "internalType": "struct Ballot.Proposal",
          "name": "",
          "type": "tuple"
        },
        {
          "internalType": "address[]",
          "name": "",
          "type": "address[]"
        }
      ],
      "stateMutability": "view",
      "type": "function",
      "constant": true
    },
    {
      "inputs": [],
      "name": "getProposals",
      "outputs": [
        {
          "components": [
            {
              "internalType": "string",
              "name": "name",
              "type": "string"
            }
          ],
          "internalType": "struct Ballot.Proposal[]",
          "name": "",
          "type": "tuple[]"
        }
      ],
      "stateMutability": "view",
      "type": "function",
      "constant": true
    },
    {
      "inputs": [],
      "name": "getVote",
      "outputs": [
        {
          "internalType": "uint256",
          "name": "result",
          "type": "uint256"
        }
      ],
      "stateMutability": "view",
      "type": "function",
      "constant": true
    }
  ],
  "bytecode": "0x60806040523480156200001157600080fd5b5060405162001636380380620016368339818101604052810190620000379190620004ab565b600060405180602001604052806040518060400160405280600e81526020017f454d5054592050524f504f53414c000000000000000000000000000000000000815250815250908060018154018082558091505060019003906000526020600020016000909190919091506000820151816000019080519060200190620000c092919062000162565b50505060005b81518110156200015a5760006040518060200160405280848481518110620000f357620000f2620004fc565b5b60200260200101518152509080600181540180825580915050600190039060005260206000200160009091909190915060008201518160000190805190602001906200014192919062000162565b5050508080620001519062000564565b915050620000c6565b505062000615565b8280546200017090620005e0565b90600052602060002090601f016020900481019282620001945760008555620001e0565b82601f10620001af57805160ff1916838001178555620001e0565b82800160010185558215620001e0579182015b82811115620001df578251825591602001919060010190620001c2565b5b509050620001ef9190620001f3565b5090565b5b808211156200020e576000816000905550600101620001f4565b5090565b6000604051905090565b600080fd5b600080fd5b600080fd5b6000601f19601f8301169050919050565b7f4e487b7100000000000000000000000000000000000000000000000000000000600052604160045260246000fd5b62000276826200022b565b810181811067ffffffffffffffff821117156200029857620002976200023c565b5b80604052505050565b6000620002ad62000212565b9050620002bb82826200026b565b919050565b600067ffffffffffffffff821115620002de57620002dd6200023c565b5b602082029050602081019050919050565b600080fd5b600080fd5b600067ffffffffffffffff8211156200031757620003166200023c565b5b62000322826200022b565b9050602081019050919050565b60005b838110156200034f57808201518184015260208101905062000332565b838111156200035f576000848401525b50505050565b60006200037c6200037684620002f9565b620002a1565b9050828152602081018484840111156200039b576200039a620002f4565b5b620003a88482856200032f565b509392505050565b600082601f830112620003c857620003c762000226565b5b8151620003da84826020860162000365565b91505092915050565b6000620003fa620003f484620002c0565b620002a1565b9050808382526020820190506020840283018581111562000420576200041f620002ef565b5b835b818110156200046e57805167ffffffffffffffff81111562000449576200044862000226565b5b808601620004588982620003b0565b8552602085019450505060208101905062000422565b5050509392505050565b600082601f83011262000490576200048f62000226565b5b8151620004a2848260208601620003e3565b91505092915050565b600060208284031215620004c457620004c36200021c565b5b600082015167ffffffffffffffff811115620004e557620004e462000221565b5b620004f38482850162000478565b91505092915050565b7f4e487b7100000000000000000000000000000000000000000000000000000000600052603260045260246000fd5b7f4e487b7100000000000000000000000000000000000000000000000000000000600052601160045260246000fd5b6000819050919050565b600062000571826200055a565b91507fffffffffffffffffffffffffffffffffffffffffffffffffffffffffffffffff8203620005a657620005a56200052b565b5b600182019050919050565b7f4e487b7100000000000000000000000000000000000000000000000000000000600052602260045260246000fd5b60006002820490506001821680620005f957607f821691505b6020821081036200060f576200060e620005b1565b5b50919050565b61101180620006256000396000f3fe6080604052600436106100705760003560e01c806362564c481161004e57806362564c48146100f9578063b1e7a1f014610124578063ccfd945c14610161578063d8bff5a51461019f57610070565b80630121b93f146100755780630242f35114610091578063333b28be146100bc575b600080fd5b61008f600480360381019061008a9190610a6a565b6101dc565b005b34801561009d57600080fd5b506100a661057d565b6040516100b39190610aa6565b60405180910390f35b3480156100c857600080fd5b506100e360048036038101906100de9190610b1f565b6105c4565b6040516100f09190610b67565b60405180910390f35b34801561010557600080fd5b5061010e610673565b60405161011b9190610d07565b60405180910390f35b34801561013057600080fd5b5061014b60048036038101906101469190610a6a565b610760565b6040516101589190610d38565b60405180910390f35b34801561016d57600080fd5b5061018860048036038101906101839190610a6a565b61079f565b604051610196929190610e3b565b60405180910390f35b3480156101ab57600080fd5b506101c660048036038101906101c19190610b1f565b61090b565b6040516101d39190610aa6565b60405180910390f35b60016000805490506101ee9190610ea1565b8111156101fa57600080fd5b6000610205336105c4565b90506000600160003373ffffffffffffffffffffffffffffffffffffffff1673ffffffffffffffffffffffffffffffffffffffff168152602001908152602001600020549050816102b4576002339080600181540180825580915050600190039060005260206000200160009091909190916101000a81548173ffffffffffffffffffffffffffffffffffffffff021916908373ffffffffffffffffffffffffffffffffffffffff1602179055505b82600160003373ffffffffffffffffffffffffffffffffffffffff1673ffffffffffffffffffffffffffffffffffffffff1681526020019081526020016000208190555060036000848152602001908152602001600020339080600181540180825580915050600190039060005260206000200160009091909190916101000a81548173ffffffffffffffffffffffffffffffffffffffff021916908373ffffffffffffffffffffffffffffffffffffffff160217905550811561057857600067ffffffffffffffff81111561038d5761038c610ed5565b5b6040519080825280602002602001820160405280156103bb5781602001602082028036833780820191505090505b50600490805190602001906103d1929190610923565b5060005b60036000838152602001908152602001600020805490508110156104f257600060036000848152602001908152602001600020828154811061041a57610419610f04565b5b9060005260206000200160009054906101000a900473ffffffffffffffffffffffffffffffffffffffff1690503373ffffffffffffffffffffffffffffffffffffffff168173ffffffffffffffffffffffffffffffffffffffff16146104de576004819080600181540180825580915050600190039060005260206000200160009091909190916101000a81548173ffffffffffffffffffffffffffffffffffffffff021916908373ffffffffffffffffffffffffffffffffffffffff1602179055505b5080806104ea90610f33565b9150506103d5565b506004600360008381526020019081526020016000209080546105169291906109ad565b50600067ffffffffffffffff81111561053257610531610ed5565b5b6040519080825280602002602001820160405280156105605781602001602082028036833780820191505090505b5060049080519060200190610576929190610923565b505b505050565b6000600160003373ffffffffffffffffffffffffffffffffffffffff1673ffffffffffffffffffffffffffffffffffffffff16815260200190815260200160002054905090565b600080600090505b60028054905081101561066d576000600282815481106105ef576105ee610f04565b5b9060005260206000200160009054906101000a900473ffffffffffffffffffffffffffffffffffffffff1690508073ffffffffffffffffffffffffffffffffffffffff168473ffffffffffffffffffffffffffffffffffffffff160361065957600192505061066d565b50808061066590610f33565b9150506105cc565b50919050565b60606000805480602002602001604051908101604052809291908181526020016000905b82821015610757578382906000526020600020016040518060200160405290816000820180546106c690610faa565b80601f01602080910402602001604051908101604052809291908181526020018280546106f290610faa565b801561073f5780601f106107145761010080835404028352916020019161073f565b820191906000526020600020905b81548152906001019060200180831161072257829003601f168201915b50505050508152505081526020019060010190610697565b50505050905090565b6002818154811061077057600080fd5b906000526020600020016000915054906101000a900473ffffffffffffffffffffffffffffffffffffffff1681565b6107a76109ff565b6060600083815481106107bd576107bc610f04565b5b9060005260206000200160036000858152602001908152602001600020816040518060200160405290816000820180546107f690610faa565b80601f016020809104026020016040519081016040528092919081815260200182805461082290610faa565b801561086f5780601f106108445761010080835404028352916020019161086f565b820191906000526020600020905b81548152906001019060200180831161085257829003601f168201915b5050505050815250509150808054806020026020016040519081016040528092919081815260200182805480156108fb57602002820191906000526020600020905b8160009054906101000a900473ffffffffffffffffffffffffffffffffffffffff1673ffffffffffffffffffffffffffffffffffffffff16815260200190600101908083116108b1575b5050505050905091509150915091565b60016020528060005260406000206000915090505481565b82805482825590600052602060002090810192821561099c579160200282015b8281111561099b5782518260006101000a81548173ffffffffffffffffffffffffffffffffffffffff021916908373ffffffffffffffffffffffffffffffffffffffff16021790555091602001919060010190610943565b5b5090506109a99190610a12565b5090565b8280548282559060005260206000209081019282156109ee5760005260206000209182015b828111156109ed5782548255916001019190600101906109d2565b5b5090506109fb9190610a12565b5090565b6040518060200160405280606081525090565b5b80821115610a2b576000816000905550600101610a13565b5090565b600080fd5b6000819050919050565b610a4781610a34565b8114610a5257600080fd5b50565b600081359050610a6481610a3e565b92915050565b600060208284031215610a8057610a7f610a2f565b5b6000610a8e84828501610a55565b91505092915050565b610aa081610a34565b82525050565b6000602082019050610abb6000830184610a97565b92915050565b600073ffffffffffffffffffffffffffffffffffffffff82169050919050565b6000610aec82610ac1565b9050919050565b610afc81610ae1565b8114610b0757600080fd5b50565b600081359050610b1981610af3565b92915050565b600060208284031215610b3557610b34610a2f565b5b6000610b4384828501610b0a565b91505092915050565b60008115159050919050565b610b6181610b4c565b82525050565b6000602082019050610b7c6000830184610b58565b92915050565b600081519050919050565b600082825260208201905092915050565b6000819050602082019050919050565b600081519050919050565b600082825260208201905092915050565b60005b83811015610be8578082015181840152602081019050610bcd565b83811115610bf7576000848401525b50505050565b6000601f19601f8301169050919050565b6000610c1982610bae565b610c238185610bb9565b9350610c33818560208601610bca565b610c3c81610bfd565b840191505092915050565b60006020830160008301518482036000860152610c648282610c0e565b9150508091505092915050565b6000610c7d8383610c47565b905092915050565b6000602082019050919050565b6000610c9d82610b82565b610ca78185610b8d565b935083602082028501610cb985610b9e565b8060005b85811015610cf55784840389528151610cd68582610c71565b9450610ce183610c85565b925060208a01995050600181019050610cbd565b50829750879550505050505092915050565b60006020820190508181036000830152610d218184610c92565b905092915050565b610d3281610ae1565b82525050565b6000602082019050610d4d6000830184610d29565b92915050565b60006020830160008301518482036000860152610d708282610c0e565b9150508091505092915050565b600081519050919050565b600082825260208201905092915050565b6000819050602082019050919050565b610db281610ae1565b82525050565b6000610dc48383610da9565b60208301905092915050565b6000602082019050919050565b6000610de882610d7d565b610df28185610d88565b9350610dfd83610d99565b8060005b83811015610e2e578151610e158882610db8565b9750610e2083610dd0565b925050600181019050610e01565b5085935050505092915050565b60006040820190508181036000830152610e558185610d53565b90508181036020830152610e698184610ddd565b90509392505050565b7f4e487b7100000000000000000000000000000000000000000000000000000000600052601160045260246000fd5b6000610eac82610a34565b9150610eb783610a34565b925082821015610eca57610ec9610e72565b5b828203905092915050565b7f4e487b7100000000000000000000000000000000000000000000000000000000600052604160045260246000fd5b7f4e487b7100000000000000000000000000000000000000000000000000000000600052603260045260246000fd5b6000610f3e82610a34565b91507fffffffffffffffffffffffffffffffffffffffffffffffffffffffffffffffff8203610f7057610f6f610e72565b5b600182019050919050565b7f4e487b7100000000000000000000000000000000000000000000000000000000600052602260045260246000fd5b60006002820490506001821680610fc257607f821691505b602082108103610fd557610fd4610f7b565b5b5091905056fea2646970667358221220f09c7b4056f41ce20e68fe89a8ff0d8e046352972ed6fd4266faeed32fbe764264736f6c634300080d0033",
  "immutableReferences": {},
  "source": "// SPDX-License-Identifier: GPL-3.0\npragma solidity >=0.7.0 <0.9.0;\n\ncontract Ballot {\n  struct Vote {\n        address voter;\n        uint vote;   // index of the voted proposal\n    }\n\n    // This is a type for a single proposal.\n    struct Proposal {\n        string name;   // short name (up to 32 bytes)\n    }\n\n    // A dynamically-sized array of `Proposal` structs.\n    Proposal[] proposals;\n\n    mapping(address => uint) public votes;\n    //This will be used to iterate over votes to determine a winner\n    address[] public alreadyVoted;\n\n    // will be used to calculate current RAW state of voting\n    mapping(uint => address[]) votersPerOption;\n\n    address[] remainingVotersTemp;\n    /// Create a new ballot to choose one of `proposalNames`.\n    constructor(string[] memory proposalNames) {\n      // For each of the provided proposal names,\n      // create a new proposal object and add it\n      // to the end of the array.\n      proposals.push(Proposal({\n            name: 'EMPTY PROPOSAL'\n      }));\n      for (uint i = 0; i < proposalNames.length; i++) {\n          proposals.push(Proposal({\n            name: proposalNames[i]\n          }));\n      }\n    }\n\n    function checkExistingVoter(address voter) public view returns (bool existingVoter) {\n      // if mapping is truly initialized with all 0\n      // existingVoter = votes[voter] == 0;\n\n      // Checking if person already voted in a more surefire way\n      for (uint i = 0; i < alreadyVoted.length; i++) {\n        address earlierVoter = alreadyVoted[i];\n        if (voter == earlierVoter) {\n          existingVoter = true;\n          break;\n        }\n      }\n      \n    }\n\n    /// Give your vote (including votes delegated to you)\n    /// to proposal `proposals[proposal].name`.\n    function vote(uint proposal) external payable {\n      // If `proposal` is out of the range of the array,\n      // this will throw automatically and revert all\n      // changes.\n      require(proposal <= proposals.length - 1);\n\n      bool existingVoter = checkExistingVoter(msg.sender);\n      uint previousVote = votes[msg.sender];\n      // if person already voted \n      if (!existingVoter) {\n        alreadyVoted.push(msg.sender);\n      }\n\n      // mapping initialised with 0 AFAIK\n      votes[msg.sender] = proposal;\n\n      // add address to the list of voters for option voting state\n      votersPerOption[proposal].push(msg.sender);\n\n      // remove address from previously voted list if voter alrady voted before\n      if (existingVoter) {\n        remainingVotersTemp = new address[](0);\n        for (uint256 i = 0; i < votersPerOption[previousVote].length; i++) {\n          address currentVoter = votersPerOption[previousVote][i];\n          if (currentVoter != msg.sender) {\n            remainingVotersTemp.push(currentVoter);\n          }\n        }\n        votersPerOption[previousVote] = remainingVotersTemp;\n        remainingVotersTemp = new address[](0);\n      }\n    }\n\n    /// @dev Computes the winning proposal taking all\n    /// previous votes into account.\n    function proposalSupporters(uint proposal) public view\n            returns (Proposal memory, address[] memory)\n    {\n      return (proposals[proposal], votersPerOption[proposal]);\n    }\n\n    function getProposals() public view returns (Proposal[] memory) {\n      return proposals;\n    }\n\n    function getVote() public view returns (uint result) {\n      return votes[msg.sender];\n    }\n\n}",
  "sourcePath": "/Users/user/projects/chainlink-hackathon-project/contracts/Ballot.sol",
  "compiler": {
    "name": "solc",
    "version": "0.8.13+commit.abaa5c0e.Emscripten.clang"
  },
  "schemaVersion": "3.4.7",
  "updatedAt": "2022-05-10T13:15:19.775Z",
  "networkType": "ethereum",
  "devdoc": {
    "kind": "dev",
    "methods": {
      "proposalSupporters(uint256)": {
        "details": "Computes the winning proposal taking all previous votes into account."
      }
    },
    "version": 1
  },
  "userdoc": {
    "kind": "user",
    "methods": {
      "constructor": {
        "notice": "Create a new ballot to choose one of `proposalNames`."
      },
      "vote(uint256)": {
        "notice": "Give your vote (including votes delegated to you) to proposal `proposals[proposal].name`."
      }
    },
    "version": 1
  }
}